{
  "contractName": "StoreManagers",
  "abi": [
    {
      "inputs": [],
      "payable": false,
      "stateMutability": "nonpayable",
      "type": "constructor",
      "signature": "constructor"
    },
    {
      "payable": true,
      "stateMutability": "payable",
      "type": "fallback"
    },
    {
      "constant": true,
      "inputs": [],
      "name": "isOwner",
      "outputs": [
        {
          "name": "",
          "type": "bool"
        }
      ],
      "payable": false,
      "stateMutability": "view",
      "type": "function",
      "signature": "0x8f32d59b"
    },
    {
      "constant": true,
      "inputs": [
        {
          "name": "storeManager",
          "type": "address"
        }
      ],
      "name": "isActiveStoreManager",
      "outputs": [
        {
          "name": "",
          "type": "bool"
        }
      ],
      "payable": false,
      "stateMutability": "view",
      "type": "function",
      "signature": "0x2a09aa55"
    },
    {
      "constant": true,
      "inputs": [],
      "name": "getAll",
      "outputs": [
        {
          "name": "",
          "type": "address[]"
        }
      ],
      "payable": false,
      "stateMutability": "view",
      "type": "function",
      "signature": "0x53ed5143"
    },
    {
      "constant": false,
      "inputs": [
        {
          "name": "manager",
          "type": "address"
        }
      ],
      "name": "add",
      "outputs": [],
      "payable": true,
      "stateMutability": "payable",
      "type": "function",
      "signature": "0x0a3b0a4f"
    },
    {
      "constant": false,
      "inputs": [
        {
          "name": "index",
          "type": "uint256"
        }
      ],
      "name": "remove",
      "outputs": [],
      "payable": true,
      "stateMutability": "payable",
      "type": "function",
      "signature": "0x4cc82215"
    }
  ],
  "bytecode": "0x608060405234801561001057600080fd5b50336000806101000a81548173ffffffffffffffffffffffffffffffffffffffff021916908373ffffffffffffffffffffffffffffffffffffffff1602179055506106ca806100606000396000f3fe60806040526004361061006d576000357c0100000000000000000000000000000000000000000000000000000000900463ffffffff1680630a3b0a4f146100725780632a09aa55146100b65780634cc822151461011f57806353ed51431461014d5780638f32d59b146101b9575b600080fd5b6100b46004803603602081101561008857600080fd5b81019080803573ffffffffffffffffffffffffffffffffffffffff1690602001909291905050506101e8565b005b3480156100c257600080fd5b50610105600480360360208110156100d957600080fd5b81019080803573ffffffffffffffffffffffffffffffffffffffff169060200190929190505050610304565b604051808215151515815260200191505060405180910390f35b61014b6004803603602081101561013557600080fd5b810190808035906020019092919050505061035f565b005b34801561015957600080fd5b50610162610568565b6040518080602001828103825283818151815260200191508051906020019060200280838360005b838110156101a557808201518184015260208101905061018a565b505050509050019250505060405180910390f35b3480156101c557600080fd5b506101ce6105f6565b604051808215151515815260200191505060405180910390f35b6000809054906101000a900473ffffffffffffffffffffffffffffffffffffffff1673ffffffffffffffffffffffffffffffffffffffff163373ffffffffffffffffffffffffffffffffffffffff1614151561024357600080fd5b60018190806001815401808255809150509060018203906000526020600020016000909192909190916101000a81548173ffffffffffffffffffffffffffffffffffffffff021916908373ffffffffffffffffffffffffffffffffffffffff160217905550506001600260008373ffffffffffffffffffffffffffffffffffffffff1673ffffffffffffffffffffffffffffffffffffffff16815260200190815260200160002060006101000a81548160ff02191690831515021790555050565b600080600260008473ffffffffffffffffffffffffffffffffffffffff1673ffffffffffffffffffffffffffffffffffffffff16815260200190815260200160002060009054906101000a900460ff16905080915050919050565b6000809054906101000a900473ffffffffffffffffffffffffffffffffffffffff1673ffffffffffffffffffffffffffffffffffffffff163373ffffffffffffffffffffffffffffffffffffffff161415156103ba57600080fd5b60006001828154811015156103cb57fe5b9060005260206000200160009054906101000a900473ffffffffffffffffffffffffffffffffffffffff169050600260008273ffffffffffffffffffffffffffffffffffffffff1673ffffffffffffffffffffffffffffffffffffffff16815260200190815260200160002060006101000a81549060ff021916905560018281548110151561045657fe5b9060005260206000200160006101000a81549073ffffffffffffffffffffffffffffffffffffffff0219169055600180549050821015156104975750610565565b60008290505b600180805490500381101561054c5760018082018154811015156104bd57fe5b9060005260206000200160009054906101000a900473ffffffffffffffffffffffffffffffffffffffff166001828154811015156104f757fe5b9060005260206000200160006101000a81548173ffffffffffffffffffffffffffffffffffffffff021916908373ffffffffffffffffffffffffffffffffffffffff160217905550808060010191505061049d565b506001805480919060019003610562919061064d565b50505b50565b606060018054806020026020016040519081016040528092919081815260200182805480156105ec57602002820191906000526020600020905b8160009054906101000a900473ffffffffffffffffffffffffffffffffffffffff1673ffffffffffffffffffffffffffffffffffffffff16815260200190600101908083116105a2575b5050505050905090565b60008060009054906101000a900473ffffffffffffffffffffffffffffffffffffffff1673ffffffffffffffffffffffffffffffffffffffff163373ffffffffffffffffffffffffffffffffffffffff1614905090565b815481835581811115610674578183600052602060002091820191016106739190610679565b5b505050565b61069b91905b8082111561069757600081600090555060010161067f565b5090565b9056fea165627a7a72305820f03b76ea9a1a3baab887afacbf67d53804417b79cf03a119da1ec9523e5428040029",
  "source": "pragma solidity ^0.5.0;\r\n\r\nimport \"./StoreManagersInterface.sol\";\r\n\r\ncontract StoreManagers is StoreManagersInterface { \r\n\r\n    address owner;\r\n    \r\n    address[] storeManagers;\r\n    mapping(address => bool) activeStoreManagers;\r\n\r\n    constructor() public {\r\n        owner = msg.sender;\r\n    }\r\n  \r\n    // adding modifier to restrict owner access for several functions.\r\n    modifier restricted() {\r\n        require(msg.sender == owner); _;\r\n    }\r\n\r\n    function isOwner() public view returns (bool) {\r\n        return msg.sender == owner;\r\n    }\r\n\r\n    /*\r\n     determines if the storeManager address is really an active store manager.\r\n    */    \r\n    function isActiveStoreManager(address storeManager) public view returns (bool){\r\n        bool selectedStoreManager = activeStoreManagers[storeManager];\r\n        return selectedStoreManager;\r\n    }\r\n\r\n    function getAll() public view returns (address[] memory){\r\n        return storeManagers;\r\n    }\r\n\r\n    // restricted access to add a store manager.\r\n    function add(address manager) restricted public payable {\r\n        storeManagers.push(manager);\r\n        activeStoreManagers[manager] = true;\r\n    }\r\n\r\n    // restricted access to remove a store manager from array and mapping\r\n    function remove(uint index) restricted public payable {\r\n        address storeManagerAddress = storeManagers[index];\r\n\r\n        // delete both values from mapping and array.\r\n        delete activeStoreManagers[storeManagerAddress];\r\n        delete storeManagers[index];\r\n\r\n        // if index is the last item in array, return        \r\n        if (index >= storeManagers.length) return;\r\n\r\n        /*\r\n         iterate over each element and move it one up, then reduce the length by 1.\r\n         this is just a simple iteration to clean up the array rather than leaving them\r\n         as blank spaces.\r\n        */\r\n        for (uint i = index; i < storeManagers.length-1; i++){\r\n            storeManagers[i] = storeManagers[i+1];\r\n        }\r\n        storeManagers.length--;\r\n    }\r\n\r\n    // fallback function, revert transaction.\r\n    function() external payable {\r\n        revert();\r\n    }\r\n\r\n}",
  "sourcePath": "C:/PersonalGit/Etherium.SmartContracts.Angular/contracts/StoreManagers.sol",
  "compiler": {
    "name": "solc",
    "version": "0.5.0+commit.1d4f565a.Emscripten.clang"
  },
  "schemaVersion": "3.0.2",
  "updatedAt": "2019-02-18T18:31:38.832Z",
  "devdoc": {
    "methods": {}
  },
  "userdoc": {
    "methods": {}
  }
}