{
  "contractName": "Stores",
  "abi": [
    {
      "constant": true,
      "inputs": [
        {
          "name": "",
          "type": "uint16"
        }
      ],
      "name": "stores",
      "outputs": [
        {
          "name": "name",
          "type": "string"
        },
        {
          "name": "active",
          "type": "bool"
        },
        {
          "name": "balance",
          "type": "uint256"
        }
      ],
      "payable": false,
      "stateMutability": "view",
      "type": "function",
      "signature": "0x64f15bc5"
    },
    {
      "constant": true,
      "inputs": [
        {
          "name": "",
          "type": "uint16"
        },
        {
          "name": "",
          "type": "uint64"
        }
      ],
      "name": "storeItems",
      "outputs": [
        {
          "name": "image",
          "type": "string"
        },
        {
          "name": "title",
          "type": "string"
        },
        {
          "name": "price",
          "type": "uint256"
        },
        {
          "name": "quantity",
          "type": "uint16"
        },
        {
          "name": "available",
          "type": "bool"
        },
        {
          "name": "exist",
          "type": "bool"
        }
      ],
      "payable": false,
      "stateMutability": "view",
      "type": "function",
      "signature": "0xf2e0d7a4"
    },
    {
      "inputs": [
        {
          "name": "storeManagersContractAddress",
          "type": "address"
        }
      ],
      "payable": false,
      "stateMutability": "nonpayable",
      "type": "constructor",
      "signature": "constructor"
    },
    {
      "payable": true,
      "stateMutability": "payable",
      "type": "fallback"
    },
    {
      "constant": true,
      "inputs": [],
      "name": "getAllStoreCodes",
      "outputs": [
        {
          "name": "",
          "type": "uint16[]"
        }
      ],
      "payable": false,
      "stateMutability": "view",
      "type": "function",
      "signature": "0xa45b348d"
    },
    {
      "constant": true,
      "inputs": [
        {
          "name": "storeCode",
          "type": "uint16"
        }
      ],
      "name": "getAllItemCodes",
      "outputs": [
        {
          "name": "",
          "type": "uint64[]"
        }
      ],
      "payable": false,
      "stateMutability": "view",
      "type": "function",
      "signature": "0xb18a684d"
    },
    {
      "constant": false,
      "inputs": [
        {
          "name": "storeCode",
          "type": "uint16"
        },
        {
          "name": "name",
          "type": "string"
        },
        {
          "name": "active",
          "type": "bool"
        },
        {
          "name": "balance",
          "type": "uint256"
        }
      ],
      "name": "add",
      "outputs": [],
      "payable": true,
      "stateMutability": "payable",
      "type": "function",
      "signature": "0x89be772e"
    },
    {
      "constant": false,
      "inputs": [
        {
          "name": "storeCode",
          "type": "uint16"
        },
        {
          "name": "name",
          "type": "string"
        },
        {
          "name": "active",
          "type": "bool"
        },
        {
          "name": "balance",
          "type": "uint256"
        }
      ],
      "name": "update",
      "outputs": [],
      "payable": true,
      "stateMutability": "payable",
      "type": "function",
      "signature": "0xb1768a46"
    },
    {
      "constant": false,
      "inputs": [
        {
          "name": "storeCode",
          "type": "uint16"
        },
        {
          "name": "code",
          "type": "uint64"
        },
        {
          "name": "image",
          "type": "string"
        },
        {
          "name": "title",
          "type": "string"
        },
        {
          "name": "price",
          "type": "uint256"
        },
        {
          "name": "quantity",
          "type": "uint16"
        },
        {
          "name": "available",
          "type": "bool"
        }
      ],
      "name": "addItem",
      "outputs": [],
      "payable": true,
      "stateMutability": "payable",
      "type": "function",
      "signature": "0xc403e85e"
    },
    {
      "constant": false,
      "inputs": [
        {
          "name": "storeCode",
          "type": "uint16"
        },
        {
          "name": "code",
          "type": "uint64"
        },
        {
          "name": "image",
          "type": "string"
        },
        {
          "name": "title",
          "type": "string"
        },
        {
          "name": "price",
          "type": "uint256"
        },
        {
          "name": "quantity",
          "type": "uint16"
        },
        {
          "name": "available",
          "type": "bool"
        }
      ],
      "name": "updateItem",
      "outputs": [],
      "payable": true,
      "stateMutability": "payable",
      "type": "function",
      "signature": "0xb1663b19"
    },
    {
      "constant": true,
      "inputs": [],
      "name": "getBalance",
      "outputs": [
        {
          "name": "",
          "type": "uint256"
        }
      ],
      "payable": false,
      "stateMutability": "view",
      "type": "function",
      "signature": "0x12065fe0"
    },
    {
      "constant": false,
      "inputs": [
        {
          "name": "storeCode",
          "type": "uint16"
        },
        {
          "name": "code",
          "type": "uint64"
        },
        {
          "name": "quantity",
          "type": "uint16"
        }
      ],
      "name": "buyItem",
      "outputs": [],
      "payable": true,
      "stateMutability": "payable",
      "type": "function",
      "signature": "0xab1ea2f6"
    },
    {
      "constant": false,
      "inputs": [],
      "name": "destroy",
      "outputs": [],
      "payable": false,
      "stateMutability": "nonpayable",
      "type": "function",
      "signature": "0x83197ef0"
    }
  ],
  "bytecode": "0x608060405234801561001057600080fd5b50604051602080612e588339810180604052602081101561003057600080fd5b8101908080519060200190929190505050336000806101000a81548173ffffffffffffffffffffffffffffffffffffffff021916908373ffffffffffffffffffffffffffffffffffffffff160217905550600073ffffffffffffffffffffffffffffffffffffffff168173ffffffffffffffffffffffffffffffffffffffff16141515156100bd57600080fd5b80600660006101000a81548173ffffffffffffffffffffffffffffffffffffffff021916908373ffffffffffffffffffffffffffffffffffffffff16021790555080600560006101000a81548173ffffffffffffffffffffffffffffffffffffffff021916908373ffffffffffffffffffffffffffffffffffffffff16021790555050612d098061014f6000396000f3fe6080604052600436106100af576000357c0100000000000000000000000000000000000000000000000000000000900463ffffffff16806312065fe0146100b457806364f15bc5146100df57806383197ef0146101a957806389be772e146101c0578063a45b348d1461029f578063ab1ea2f61461030b578063b1663b191461035f578063b1768a46146104f7578063b18a684d146105d6578063c403e85e1461066a578063f2e0d7a414610802575b600080fd5b3480156100c057600080fd5b506100c9610966565b6040518082815260200191505060405180910390f35b3480156100eb57600080fd5b5061011c6004803603602081101561010257600080fd5b81019080803561ffff1690602001909291905050506109e0565b604051808060200184151515158152602001838152602001828103825285818151815260200191508051906020019080838360005b8381101561016c578082015181840152602081019050610151565b50505050905090810190601f1680156101995780820380516001836020036101000a031916815260200191505b5094505050505060405180910390f35b3480156101b557600080fd5b506101be610aaf565b005b61029d600480360360808110156101d657600080fd5b81019080803561ffff1690602001909291908035906020019064010000000081111561020157600080fd5b82018360208201111561021357600080fd5b8035906020019184600183028401116401000000008311171561023557600080fd5b91908080601f016020809104026020016040519081016040528093929190818152602001838380828437600081840152601f19601f82011690508083019250505050505050919291929080351515906020019092919080359060200190929190505050610b44565b005b3480156102ab57600080fd5b506102b4610fa4565b6040518080602001828103825283818151815260200191508051906020019060200280838360005b838110156102f75780820151818401526020810190506102dc565b505050509050019250505060405180910390f35b61035d6004803603606081101561032157600080fd5b81019080803561ffff169060200190929190803567ffffffffffffffff169060200190929190803561ffff169060200190929190505050611024565b005b6104f5600480360360e081101561037557600080fd5b81019080803561ffff169060200190929190803567ffffffffffffffff169060200190929190803590602001906401000000008111156103b457600080fd5b8201836020820111156103c657600080fd5b803590602001918460018302840111640100000000831117156103e857600080fd5b91908080601f016020809104026020016040519081016040528093929190818152602001838380828437600081840152601f19601f8201169050808301925050505050505091929192908035906020019064010000000081111561044b57600080fd5b82018360208201111561045d57600080fd5b8035906020019184600183028401116401000000008311171561047f57600080fd5b91908080601f016020809104026020016040519081016040528093929190818152602001838380828437600081840152601f19601f82011690508083019250505050505050919291929080359060200190929190803561ffff169060200190929190803515159060200190929190505050611528565b005b6105d46004803603608081101561050d57600080fd5b81019080803561ffff1690602001909291908035906020019064010000000081111561053857600080fd5b82018360208201111561054a57600080fd5b8035906020019184600183028401116401000000008311171561056c57600080fd5b91908080601f016020809104026020016040519081016040528093929190818152602001838380828437600081840152601f19601f82011690508083019250505050505050919291929080351515906020019092919080359060200190929190505050611c65565b005b3480156105e257600080fd5b50610613600480360360208110156105f957600080fd5b81019080803561ffff169060200190929190505050612052565b6040518080602001828103825283818151815260200191508051906020019060200280838360005b8381101561065657808201518184015260208101905061063b565b505050509050019250505060405180910390f35b610800600480360360e081101561068057600080fd5b81019080803561ffff169060200190929190803567ffffffffffffffff169060200190929190803590602001906401000000008111156106bf57600080fd5b8201836020820111156106d157600080fd5b803590602001918460018302840111640100000000831117156106f357600080fd5b91908080601f016020809104026020016040519081016040528093929190818152602001838380828437600081840152601f19601f8201169050808301925050505050505091929192908035906020019064010000000081111561075657600080fd5b82018360208201111561076857600080fd5b8035906020019184600183028401116401000000008311171561078a57600080fd5b91908080601f016020809104026020016040519081016040528093929190818152602001838380828437600081840152601f19601f82011690508083019250505050505050919291929080359060200190929190803561ffff1690602001909291908035151590602001909291905050506120fc565b005b34801561080e57600080fd5b506108536004803603604081101561082557600080fd5b81019080803561ffff169060200190929190803567ffffffffffffffff1690602001909291905050506128a4565b6040518080602001806020018781526020018661ffff1661ffff1681526020018515151515815260200184151515158152602001838103835289818151815260200191508051906020019080838360005b838110156108bf5780820151818401526020810190506108a4565b50505050905090810190601f1680156108ec5780820380516001836020036101000a031916815260200191505b50838103825288818151815260200191508051906020019080838360005b8381101561092557808201518184015260208101905061090a565b50505050905090810190601f1680156109525780820380516001836020036101000a031916815260200191505b509850505050505050505060405180910390f35b60003373ffffffffffffffffffffffffffffffffffffffff166000809054906101000a900473ffffffffffffffffffffffffffffffffffffffff1673ffffffffffffffffffffffffffffffffffffffff161415156109c357600080fd5b3073ffffffffffffffffffffffffffffffffffffffff1631905090565b6003602052806000526040600020600091509050806000018054600181600116156101000203166002900480601f016020809104026020016040519081016040528092919081815260200182805460018160011615610100020316600290048015610a8c5780601f10610a6157610100808354040283529160200191610a8c565b820191906000526020600020905b815481529060010190602001808311610a6f57829003601f168201915b5050505050908060010160009054906101000a900460ff16908060020154905083565b3373ffffffffffffffffffffffffffffffffffffffff166000809054906101000a900473ffffffffffffffffffffffffffffffffffffffff1673ffffffffffffffffffffffffffffffffffffffff16141515610b0a57600080fd5b6000809054906101000a900473ffffffffffffffffffffffffffffffffffffffff1673ffffffffffffffffffffffffffffffffffffffff16ff5b600560009054906101000a900473ffffffffffffffffffffffffffffffffffffffff1673ffffffffffffffffffffffffffffffffffffffff16632a09aa55336040518263ffffffff167c0100000000000000000000000000000000000000000000000000000000028152600401808273ffffffffffffffffffffffffffffffffffffffff1673ffffffffffffffffffffffffffffffffffffffff16815260200191505060206040518083038186803b158015610bff57600080fd5b505afa158015610c13573d6000803e3d6000fd5b505050506040513d6020811015610c2957600080fd5b81019080805190602001909291905050501515610c4557600080fd5b60008461ffff1610151515610c5957600080fd5b6000600102600360008661ffff1661ffff1681526020019081526020016000206000016040516020018080602001828103825283818154600181600116156101000203166002900481526020019150805460018160011615610100020316600290048015610d085780601f10610cdd57610100808354040283529160200191610d08565b820191906000526020600020905b815481529060010190602001808311610ceb57829003601f168201915b50509250505060405160208183030381529060405280519060200120111515610dbf576040517f08c379a00000000000000000000000000000000000000000000000000000000081526004018080602001828103825260228152602001807f6974656d2077697468207468697320636f646520616c7265616479206578697381526020017f747300000000000000000000000000000000000000000000000000000000000081525060400191505060405180910390fd5b6000600102836040516020018080602001828103825283818151815260200191508051906020019080838360005b83811015610e08578082015181840152602081019050610ded565b50505050905090810190601f168015610e355780820380516001836020036101000a031916815260200191505b509250505060405160208183030381529060405280519060200120111515610ec5576040517f08c379a000000000000000000000000000000000000000000000000000000000815260040180806020018281038252601e8152602001807f696d6167652073686f756c64206e6f74206265206c65667420656d707479000081525060200191505060405180910390fd5b600284908060018154018082558091505090600182039060005260206000209060109182820401919006600202909192909190916101000a81548161ffff021916908361ffff1602179055505082600360008661ffff1661ffff1681526020019081526020016000206000019080519060200190610f44929190612c38565b5081600360008661ffff1661ffff16815260200190815260200160002060010160006101000a81548160ff02191690831515021790555080600360008661ffff1661ffff1681526020019081526020016000206002018190555050505050565b6060600280548060200260200160405190810160405280929190818152602001828054801561101a57602002820191906000526020600020906000905b82829054906101000a900461ffff1661ffff1681526020019060020190602082600101049283019260010382029150808411610fe15790505b5050505050905090565b60008267ffffffffffffffff16101515156110a7576040517f08c379a000000000000000000000000000000000000000000000000000000000815260040180806020018281038252601d8152602001807f636f64652073686f756c642062652067726561746564207468616e203000000081525060200191505060405180910390fd5b60011515600460008561ffff1661ffff16815260200190815260200160002060008467ffffffffffffffff1667ffffffffffffffff16815260200190815260200160002060030160029054906101000a900460ff161515141515611173576040517f08c379a00000000000000000000000000000000000000000000000000000000081526004018080602001828103825260188152602001807f6974656d2073686f756c6420626520617661696c61626c65000000000000000081525060200191505060405180910390fd5b600460008461ffff1661ffff16815260200190815260200160002060008367ffffffffffffffff1667ffffffffffffffff16815260200190815260200160002060030160039054906101000a900460ff16151561125e576040517f08c379a00000000000000000000000000000000000000000000000000000000081526004018080602001828103825260328152602001807f6974656d2077697468207468697320636f64652073686f756c6420616c72656181526020017f647920657869737420746f20757064617465000000000000000000000000000081525060400191505060405180910390fd5b8061ffff16600460008561ffff1661ffff16815260200190815260200160002060008467ffffffffffffffff1667ffffffffffffffff16815260200190815260200160002060030160009054906101000a900461ffff1661ffff161015151561132f576040517f08c379a000000000000000000000000000000000000000000000000000000000815260040180806020018281038252601d8152602001807f73746f636b207175616e746974792073686f756c64206265206d6f726500000081525060200191505060405180910390fd5b60008161ffff16101515156113ac576040517f08c379a000000000000000000000000000000000000000000000000000000000815260040180806020018281038252601c8152602001807f7175616e746974792073686f756c642062652030206f72206d6f72650000000081525060200191505060405180910390fd5b6113b7838383612a45565b80600460008561ffff1661ffff16815260200190815260200160002060008467ffffffffffffffff1667ffffffffffffffff16815260200190815260200160002060030160009054906101000a900461ffff1603600460008561ffff1661ffff16815260200190815260200160002060008467ffffffffffffffff1667ffffffffffffffff16815260200190815260200160002060030160006101000a81548161ffff021916908361ffff1602179055506000600460008561ffff1661ffff16815260200190815260200160002060008467ffffffffffffffff1667ffffffffffffffff16815260200190815260200160002060030160009054906101000a900461ffff1661ffff161415611523576000600460008561ffff1661ffff16815260200190815260200160002060008467ffffffffffffffff1667ffffffffffffffff16815260200190815260200160002060030160026101000a81548160ff0219169083151502179055505b505050565b600560009054906101000a900473ffffffffffffffffffffffffffffffffffffffff1673ffffffffffffffffffffffffffffffffffffffff16632a09aa55336040518263ffffffff167c0100000000000000000000000000000000000000000000000000000000028152600401808273ffffffffffffffffffffffffffffffffffffffff1673ffffffffffffffffffffffffffffffffffffffff16815260200191505060206040518083038186803b1580156115e357600080fd5b505afa1580156115f7573d6000803e3d6000fd5b505050506040513d602081101561160d57600080fd5b8101908080519060200190929190505050151561162957600080fd5b60008667ffffffffffffffff16101515156116ac576040517f08c379a000000000000000000000000000000000000000000000000000000000815260040180806020018281038252601d8152602001807f636f64652073686f756c642062652067726561746564207468616e203000000081525060200191505060405180910390fd5b600460008861ffff1661ffff16815260200190815260200160002060008767ffffffffffffffff1667ffffffffffffffff16815260200190815260200160002060030160039054906101000a900460ff161515611797576040517f08c379a00000000000000000000000000000000000000000000000000000000081526004018080602001828103825260328152602001807f6974656d2077697468207468697320636f64652073686f756c6420616c72656181526020017f647920657869737420746f20757064617465000000000000000000000000000081525060400191505060405180910390fd5b6000600102856040516020018080602001828103825283818151815260200191508051906020019080838360005b838110156117e05780820151818401526020810190506117c5565b50505050905090810190601f16801561180d5780820380516001836020036101000a031916815260200191505b50925050506040516020818303038152906040528051906020012011151561189d576040517f08c379a000000000000000000000000000000000000000000000000000000000815260040180806020018281038252601e8152602001807f696d6167652073686f756c64206e6f74206265206c65667420656d707479000081525060200191505060405180910390fd5b6000600102846040516020018080602001828103825283818151815260200191508051906020019080838360005b838110156118e65780820151818401526020810190506118cb565b50505050905090810190601f1680156119135780820380516001836020036101000a031916815260200191505b5092505050604051602081830303815290604052805190602001201115156119a3576040517f08c379a000000000000000000000000000000000000000000000000000000000815260040180806020018281038252601e8152602001807f7469746c652073686f756c64206e6f74206265206c65667420656d707479000081525060200191505060405180910390fd5b60008310151515611a1c576040517f08c379a00000000000000000000000000000000000000000000000000000000081526004018080602001828103825260198152602001807f70726963652073686f756c642062652030206f72206d6f72650000000000000081525060200191505060405180910390fd5b60008261ffff1610151515611a99576040517f08c379a000000000000000000000000000000000000000000000000000000000815260040180806020018281038252601c8152602001807f7175616e746974792073686f756c642062652030206f72206d6f72650000000081525060200191505060405180910390fd5b84600460008961ffff1661ffff16815260200190815260200160002060008867ffffffffffffffff1667ffffffffffffffff1681526020019081526020016000206000019080519060200190611af0929190612c38565b5083600460008961ffff1661ffff16815260200190815260200160002060008867ffffffffffffffff1667ffffffffffffffff1681526020019081526020016000206001019080519060200190611b48929190612c38565b5082600460008961ffff1661ffff16815260200190815260200160002060008867ffffffffffffffff1667ffffffffffffffff1681526020019081526020016000206002018190555081600460008961ffff1661ffff16815260200190815260200160002060008867ffffffffffffffff1667ffffffffffffffff16815260200190815260200160002060030160006101000a81548161ffff021916908361ffff16021790555060008261ffff161415611c0157600090505b80600460008961ffff1661ffff16815260200190815260200160002060008867ffffffffffffffff1667ffffffffffffffff16815260200190815260200160002060030160026101000a81548160ff02191690831515021790555050505050505050565b600560009054906101000a900473ffffffffffffffffffffffffffffffffffffffff1673ffffffffffffffffffffffffffffffffffffffff16632a09aa55336040518263ffffffff167c0100000000000000000000000000000000000000000000000000000000028152600401808273ffffffffffffffffffffffffffffffffffffffff1673ffffffffffffffffffffffffffffffffffffffff16815260200191505060206040518083038186803b158015611d2057600080fd5b505afa158015611d34573d6000803e3d6000fd5b505050506040513d6020811015611d4a57600080fd5b81019080805190602001909291905050501515611d6657600080fd5b60008461ffff1610151515611d7a57600080fd5b6000600102600360008661ffff1661ffff1681526020019081526020016000206000016040516020018080602001828103825283818154600181600116156101000203166002900481526020019150805460018160011615610100020316600290048015611e295780601f10611dfe57610100808354040283529160200191611e29565b820191906000526020600020905b815481529060010190602001808311611e0c57829003601f168201915b50509250505060405160208183030381529060405280519060200120111515611eba576040517f08c379a00000000000000000000000000000000000000000000000000000000081526004018080602001828103825260208152602001807f6974656d2073686f756c6420616c726561647920626520617661696c61626c6581525060200191505060405180910390fd5b6000600102836040516020018080602001828103825283818151815260200191508051906020019080838360005b83811015611f03578082015181840152602081019050611ee8565b50505050905090810190601f168015611f305780820380516001836020036101000a031916815260200191505b509250505060405160208183030381529060405280519060200120111515611fc0576040517f08c379a000000000000000000000000000000000000000000000000000000000815260040180806020018281038252601e8152602001807f696d6167652073686f756c64206e6f74206265206c65667420656d707479000081525060200191505060405180910390fd5b82600360008661ffff1661ffff1681526020019081526020016000206000019080519060200190611ff2929190612c38565b5081600360008661ffff1661ffff16815260200190815260200160002060010160006101000a81548160ff02191690831515021790555080600360008661ffff1661ffff1681526020019081526020016000206002018190555050505050565b6060600360008361ffff1661ffff1681526020019081526020016000206003018054806020026020016040519081016040528092919081815260200182805480156120f057602002820191906000526020600020906000905b82829054906101000a900467ffffffffffffffff1667ffffffffffffffff16815260200190600801906020826007010492830192600103820291508084116120ab5790505b50505050509050919050565b600560009054906101000a900473ffffffffffffffffffffffffffffffffffffffff1673ffffffffffffffffffffffffffffffffffffffff16632a09aa55336040518263ffffffff167c0100000000000000000000000000000000000000000000000000000000028152600401808273ffffffffffffffffffffffffffffffffffffffff1673ffffffffffffffffffffffffffffffffffffffff16815260200191505060206040518083038186803b1580156121b757600080fd5b505afa1580156121cb573d6000803e3d6000fd5b505050506040513d60208110156121e157600080fd5b810190808051906020019092919050505015156121fd57600080fd5b60008761ffff161015151561221157600080fd5b60008667ffffffffffffffff161015151561222b57600080fd5b600460008861ffff1661ffff16815260200190815260200160002060008767ffffffffffffffff1667ffffffffffffffff16815260200190815260200160002060030160039054906101000a900460ff16151515612317576040517f08c379a00000000000000000000000000000000000000000000000000000000081526004018080602001828103825260228152602001807f6974656d2077697468207468697320636f646520616c7265616479206578697381526020017f747300000000000000000000000000000000000000000000000000000000000081525060400191505060405180910390fd5b6000600102856040516020018080602001828103825283818151815260200191508051906020019080838360005b83811015612360578082015181840152602081019050612345565b50505050905090810190601f16801561238d5780820380516001836020036101000a031916815260200191505b50925050506040516020818303038152906040528051906020012011151561241d576040517f08c379a000000000000000000000000000000000000000000000000000000000815260040180806020018281038252601e8152602001807f696d6167652073686f756c64206e6f74206265206c65667420656d707479000081525060200191505060405180910390fd5b6000600102846040516020018080602001828103825283818151815260200191508051906020019080838360005b8381101561246657808201518184015260208101905061244b565b50505050905090810190601f1680156124935780820380516001836020036101000a031916815260200191505b509250505060405160208183030381529060405280519060200120111515612523576040517f08c379a000000000000000000000000000000000000000000000000000000000815260040180806020018281038252601e8152602001807f7469746c652073686f756c64206e6f74206265206c65667420656d707479000081525060200191505060405180910390fd5b6000831015151561259c576040517f08c379a00000000000000000000000000000000000000000000000000000000081526004018080602001828103825260198152602001807f70726963652073686f756c642062652030206f72206d6f72650000000000000081525060200191505060405180910390fd5b60008261ffff1610151515612619576040517f08c379a000000000000000000000000000000000000000000000000000000000815260040180806020018281038252601c8152602001807f7175616e746974792073686f756c642062652030206f72206d6f72650000000081525060200191505060405180910390fd5b600360008861ffff1661ffff16815260200190815260200160002060030186908060018154018082558091505090600182039060005260206000209060049182820401919006600802909192909190916101000a81548167ffffffffffffffff021916908367ffffffffffffffff1602179055505084600460008961ffff1661ffff16815260200190815260200160002060008867ffffffffffffffff1667ffffffffffffffff16815260200190815260200160002060000190805190602001906126e5929190612c38565b5083600460008961ffff1661ffff16815260200190815260200160002060008867ffffffffffffffff1667ffffffffffffffff168152602001908152602001600020600101908051906020019061273d929190612c38565b5082600460008961ffff1661ffff16815260200190815260200160002060008867ffffffffffffffff1667ffffffffffffffff1681526020019081526020016000206002018190555081600460008961ffff1661ffff16815260200190815260200160002060008867ffffffffffffffff1667ffffffffffffffff16815260200190815260200160002060030160006101000a81548161ffff021916908361ffff16021790555080600460008961ffff1661ffff16815260200190815260200160002060008867ffffffffffffffff1667ffffffffffffffff16815260200190815260200160002060030160026101000a81548160ff0219169083151502179055506001600460008961ffff1661ffff16815260200190815260200160002060008867ffffffffffffffff1667ffffffffffffffff16815260200190815260200160002060030160036101000a81548160ff02191690831515021790555050505050505050565b600460205281600052604060002060205280600052604060002060009150915050806000018054600181600116156101000203166002900480601f01602080910402602001604051908101604052809291908181526020018280546001816001161561010002031660029004801561295d5780601f106129325761010080835404028352916020019161295d565b820191906000526020600020905b81548152906001019060200180831161294057829003601f168201915b505050505090806001018054600181600116156101000203166002900480601f0160208091040260200160405190810160405280929190818152602001828054600181600116156101000203166002900480156129fb5780601f106129d0576101008083540402835291602001916129fb565b820191906000526020600020905b8154815290600101906020018083116129de57829003601f168201915b5050505050908060020154908060030160009054906101000a900461ffff16908060030160029054906101000a900460ff16908060030160039054906101000a900460ff16905086565b60008161ffff16600460008661ffff1661ffff16815260200190815260200160002060008567ffffffffffffffff1667ffffffffffffffff16815260200190815260200160002060020154029050803373ffffffffffffffffffffffffffffffffffffffff163110151515612b22576040517f08c379a00000000000000000000000000000000000000000000000000000000081526004018080602001828103825260138152602001807f4e6f7420656e6f7567682062616c616e6365210000000000000000000000000081525060200191505060405180910390fd5b3481141515612bbf576040517f08c379a00000000000000000000000000000000000000000000000000000000081526004018080602001828103825260218152602001807f4f757374616e64696e672062616c616e636520646f6573206e6f74206d61746381526020017f680000000000000000000000000000000000000000000000000000000000000081525060400191505060405180910390fd5b3373ffffffffffffffffffffffffffffffffffffffff166108fc349081150290604051600060405180830381858888f19350505050158015612c05573d6000803e3d6000fd5b5034600360008661ffff1661ffff1681526020019081526020016000206002016000828254019250508190555050505050565b828054600181600116156101000203166002900490600052602060002090601f016020900481019282601f10612c7957805160ff1916838001178555612ca7565b82800160010185558215612ca7579182015b82811115612ca6578251825591602001919060010190612c8b565b5b509050612cb49190612cb8565b5090565b612cda91905b80821115612cd6576000816000905550600101612cbe565b5090565b9056fea165627a7a7230582078632eb9440279b302398d3cf2547bfd1b07b27bdf43474bab218c9ef0687a2e0029",
  "source": "pragma solidity ^0.5.0;\r\n\r\nimport \"./StoreManagersInterface.sol\";\r\n\r\ncontract Stores { \r\n    address owner;\r\n\r\n    address funds;\r\n\r\n    struct StoreItem {\r\n        string image;\r\n        string title;\r\n        uint256 price;\r\n        uint16 quantity;\r\n        bool available;\r\n        bool exist;\r\n    }\r\n\r\n    struct Store {\r\n        string name;\r\n        bool active;\r\n        uint256 balance;\r\n        uint64[] itemCodes;\r\n    }   \r\n\r\n    uint16[] storeCodes;\r\n    mapping(uint16 => Store) public stores;\r\n    mapping(uint16 => mapping(uint64 => StoreItem)) public storeItems;\r\n\r\n    StoreManagersInterface storeManagers;\r\n    address storeManagersAddress;\r\n\r\n    constructor(address storeManagersContractAddress) public { \r\n        owner = msg.sender;\r\n\r\n        require(storeManagersContractAddress != address(0));\r\n        storeManagersAddress = storeManagersContractAddress;\r\n        storeManagers = StoreManagersInterface(storeManagersContractAddress);\r\n    }\r\n\r\n    modifier restricted() {\r\n        require(storeManagers.isActiveStoreManager(msg.sender)); _;\r\n    }\r\n\r\n    modifier ownerRestricted() { \r\n        require(owner == msg.sender); _;\r\n    }\r\n\r\n    function getAllStoreCodes() public view returns ( uint16[] memory) {\r\n        return storeCodes;\r\n    }\r\n\r\n    function getAllItemCodes(uint16 storeCode) public view returns (uint64[] memory) {\r\n        return stores[storeCode].itemCodes;\r\n    }\r\n\r\n    function add(\r\n        uint16 storeCode, \r\n        string memory name, \r\n        bool active, \r\n        uint256 balance\r\n    ) restricted public payable {\r\n        require(storeCode >= 0);\r\n        require(keccak256(abi.encode(stores[storeCode].name)) > 0, \"item with this code already exists\");\r\n        require(keccak256(abi.encode(name)) > 0, \"image should not be left empty\");\r\n\r\n        storeCodes.push(storeCode);\r\n        stores[storeCode].name = name;\r\n        stores[storeCode].active = active;\r\n        stores[storeCode].balance = balance;\r\n    }\r\n\r\n    function update(\r\n        uint16 storeCode, \r\n        string memory name, \r\n        bool active, \r\n        uint256 balance\r\n    ) restricted public payable { \r\n        require(storeCode >= 0);\r\n        require(keccak256(abi.encode(stores[storeCode].name)) > 0, \"item should already be available\");\r\n        require(keccak256(abi.encode(name)) > 0, \"image should not be left empty\");\r\n\r\n        stores[storeCode].name = name;\r\n        stores[storeCode].active = active;\r\n        stores[storeCode].balance = balance;\r\n    }\r\n\r\n    function addItem(\r\n        uint16 storeCode, \r\n        uint64 code, \r\n        string memory image, \r\n        string memory title,\r\n        uint256 price, \r\n        uint16 quantity, \r\n        bool available\r\n    ) restricted public payable {\r\n        \r\n        require(storeCode >= 0);\r\n        require(code >= 0);\r\n        require(!storeItems[storeCode][code].exist, \"item with this code already exists\");\r\n        require(keccak256(abi.encode(image)) > 0, \"image should not be left empty\");\r\n        require(keccak256(abi.encode(title)) > 0, \"title should not be left empty\");\r\n        require(price >= 0, \"price should be 0 or more\");\r\n        require(quantity >= 0, \"quantity should be 0 or more\");\r\n\r\n        stores[storeCode].itemCodes.push(code);\r\n\r\n        storeItems[storeCode][code].image = image;\r\n        storeItems[storeCode][code].title = title;\r\n        storeItems[storeCode][code].price = price;\r\n        storeItems[storeCode][code].quantity = quantity;\r\n        storeItems[storeCode][code].available = available;\r\n        storeItems[storeCode][code].exist = true;\r\n    }\r\n\r\n    function updateItem(\r\n        uint16 storeCode, \r\n        uint64 code, \r\n        string memory image, \r\n        string memory title, \r\n        uint256 price, \r\n        uint16 quantity, \r\n        bool available\r\n    ) restricted public payable {\r\n        \r\n        require(code >= 0, \"code should be greated than 0\");\r\n        require(storeItems[storeCode][code].exist, \"item with this code should already exist to update\");\r\n        require(keccak256(abi.encode(image)) > 0, \"image should not be left empty\");\r\n        require(keccak256(abi.encode(title)) > 0, \"title should not be left empty\");\r\n        require(price >= 0, \"price should be 0 or more\");\r\n        require(quantity >= 0, \"quantity should be 0 or more\");\r\n\r\n        storeItems[storeCode][code].image = image;\r\n        storeItems[storeCode][code].title = title;\r\n        storeItems[storeCode][code].price = price;\r\n        storeItems[storeCode][code].quantity = quantity;\r\n\r\n        if(quantity == 0){\r\n            available = false;\r\n        }\r\n\r\n        storeItems[storeCode][code].available = available;\r\n    }\r\n\r\n    function getBalance() ownerRestricted public view returns (uint256) { \r\n        return address(this).balance;\r\n    }\r\n\r\n    function buyItem(\r\n        uint16 storeCode, \r\n        uint64 code, \r\n        uint16 quantity\r\n    ) public payable {\r\n         require(code >= 0, \"code should be greated than 0\");\r\n        require(storeItems[storeCode][code].available == true, \"item should be available\");\r\n        require(storeItems[storeCode][code].exist, \"item with this code should already exist to update\");\r\n        require(storeItems[storeCode][code].quantity >= quantity, \"stock quantity should be more\");\r\n        require(quantity >= 0, \"quantity should be 0 or more\");\r\n        \r\n        withdrawFunds(storeCode, code, quantity);\r\n        storeItems[storeCode][code].quantity = storeItems[storeCode][code].quantity - quantity;\r\n\r\n        if(storeItems[storeCode][code].quantity == 0){\r\n            storeItems[storeCode][code].available = false;\r\n        }\r\n    }\r\n\r\n     function withdrawFunds(\r\n        uint16 storeCode, \r\n        uint64 code, \r\n        uint16 quantity\r\n    ) private {\r\n        uint256 outstandingBalance = storeItems[storeCode][code].price * quantity;\r\n\r\n        // address payable payableOwner = address(uint160(owner));       \r\n\r\n        require(msg.sender.balance >= outstandingBalance, \"Not enough balance!\");\r\n        require(outstandingBalance == msg.value, \"Oustanding balance does not match\");\r\n\r\n        // payableOwner.transfer(msg.value);\r\n        // payableOwner = msg.sender;\r\n        msg.sender.transfer(msg.value); // transfer funds;\r\n        stores[storeCode].balance += msg.value;\r\n    }\r\n\r\n    function destroy() ownerRestricted public {\r\n        selfdestruct(address(uint160(owner)));\r\n    }\r\n\r\n    function() external payable {\r\n        revert();\r\n    }\r\n}",
  "sourcePath": "C:/PersonalGit/Etherium.SmartContracts.Angular/contracts/Stores.sol",
  "compiler": {
    "name": "solc",
    "version": "0.5.0+commit.1d4f565a.Emscripten.clang"
  },
  "schemaVersion": "3.0.2",
  "updatedAt": "2019-02-17T17:10:06.065Z",
  "devdoc": {
    "methods": {}
  },
  "userdoc": {
    "methods": {}
  }
}