{
  "contractName": "Stores",
  "abi": [
    {
      "constant": true,
      "inputs": [
        {
          "name": "",
          "type": "uint16"
        }
      ],
      "name": "stores",
      "outputs": [
        {
          "name": "name",
          "type": "string"
        },
        {
          "name": "active",
          "type": "bool"
        },
        {
          "name": "balance",
          "type": "uint256"
        }
      ],
      "payable": false,
      "stateMutability": "view",
      "type": "function",
      "signature": "0x64f15bc5"
    },
    {
      "constant": true,
      "inputs": [
        {
          "name": "",
          "type": "uint16"
        },
        {
          "name": "",
          "type": "uint64"
        }
      ],
      "name": "storeItems",
      "outputs": [
        {
          "name": "image",
          "type": "string"
        },
        {
          "name": "title",
          "type": "string"
        },
        {
          "name": "price",
          "type": "uint256"
        },
        {
          "name": "quantity",
          "type": "uint16"
        },
        {
          "name": "available",
          "type": "bool"
        },
        {
          "name": "exist",
          "type": "bool"
        }
      ],
      "payable": false,
      "stateMutability": "view",
      "type": "function",
      "signature": "0xf2e0d7a4"
    },
    {
      "inputs": [
        {
          "name": "storeManagersContractAddress",
          "type": "address"
        }
      ],
      "payable": false,
      "stateMutability": "nonpayable",
      "type": "constructor",
      "signature": "constructor"
    },
    {
      "payable": true,
      "stateMutability": "payable",
      "type": "fallback"
    },
    {
      "anonymous": false,
      "inputs": [
        {
          "indexed": false,
          "name": "sender",
          "type": "address"
        },
        {
          "indexed": false,
          "name": "found",
          "type": "bool"
        },
        {
          "indexed": false,
          "name": "text",
          "type": "string"
        }
      ],
      "name": "log",
      "type": "event",
      "signature": "0x212255cc5ff4a2d867f69451c60f51c24e41784276f4ceffe8ec3af322690750"
    },
    {
      "constant": true,
      "inputs": [],
      "name": "getAllStoreCodes",
      "outputs": [
        {
          "name": "",
          "type": "uint16[]"
        }
      ],
      "payable": false,
      "stateMutability": "view",
      "type": "function",
      "signature": "0xa45b348d"
    },
    {
      "constant": true,
      "inputs": [
        {
          "name": "storeCode",
          "type": "uint16"
        }
      ],
      "name": "getAllItemCodes",
      "outputs": [
        {
          "name": "",
          "type": "uint64[]"
        }
      ],
      "payable": false,
      "stateMutability": "view",
      "type": "function",
      "signature": "0xb18a684d"
    },
    {
      "constant": false,
      "inputs": [
        {
          "name": "storeCode",
          "type": "uint16"
        },
        {
          "name": "name",
          "type": "string"
        },
        {
          "name": "active",
          "type": "bool"
        },
        {
          "name": "balance",
          "type": "uint256"
        }
      ],
      "name": "add",
      "outputs": [],
      "payable": true,
      "stateMutability": "payable",
      "type": "function",
      "signature": "0x89be772e"
    },
    {
      "constant": false,
      "inputs": [
        {
          "name": "storeCode",
          "type": "uint16"
        },
        {
          "name": "name",
          "type": "string"
        },
        {
          "name": "active",
          "type": "bool"
        },
        {
          "name": "balance",
          "type": "uint256"
        }
      ],
      "name": "update",
      "outputs": [],
      "payable": true,
      "stateMutability": "payable",
      "type": "function",
      "signature": "0xb1768a46"
    },
    {
      "constant": false,
      "inputs": [
        {
          "name": "storeCode",
          "type": "uint16"
        },
        {
          "name": "code",
          "type": "uint64"
        },
        {
          "name": "image",
          "type": "string"
        },
        {
          "name": "title",
          "type": "string"
        },
        {
          "name": "price",
          "type": "uint256"
        },
        {
          "name": "quantity",
          "type": "uint16"
        },
        {
          "name": "available",
          "type": "bool"
        }
      ],
      "name": "addItem",
      "outputs": [],
      "payable": true,
      "stateMutability": "payable",
      "type": "function",
      "signature": "0xc403e85e"
    },
    {
      "constant": false,
      "inputs": [
        {
          "name": "storeCode",
          "type": "uint16"
        },
        {
          "name": "code",
          "type": "uint64"
        },
        {
          "name": "image",
          "type": "string"
        },
        {
          "name": "title",
          "type": "string"
        },
        {
          "name": "price",
          "type": "uint256"
        },
        {
          "name": "quantity",
          "type": "uint16"
        },
        {
          "name": "available",
          "type": "bool"
        }
      ],
      "name": "updateItem",
      "outputs": [],
      "payable": true,
      "stateMutability": "payable",
      "type": "function",
      "signature": "0xb1663b19"
    },
    {
      "constant": true,
      "inputs": [],
      "name": "getBalance",
      "outputs": [
        {
          "name": "",
          "type": "uint256"
        }
      ],
      "payable": false,
      "stateMutability": "view",
      "type": "function",
      "signature": "0x12065fe0"
    },
    {
      "constant": false,
      "inputs": [
        {
          "name": "storeCode",
          "type": "uint16"
        },
        {
          "name": "code",
          "type": "uint64"
        },
        {
          "name": "quantity",
          "type": "uint16"
        }
      ],
      "name": "buyItem",
      "outputs": [],
      "payable": true,
      "stateMutability": "payable",
      "type": "function",
      "signature": "0xab1ea2f6"
    },
    {
      "constant": false,
      "inputs": [],
      "name": "destroy",
      "outputs": [],
      "payable": false,
      "stateMutability": "nonpayable",
      "type": "function",
      "signature": "0x83197ef0"
    }
  ],
  "bytecode": "0x608060405234801561001057600080fd5b50604051602080620035378339810180604052602081101561003157600080fd5b8101908080519060200190929190505050336000806101000a81548173ffffffffffffffffffffffffffffffffffffffff021916908373ffffffffffffffffffffffffffffffffffffffff160217905550600073ffffffffffffffffffffffffffffffffffffffff168173ffffffffffffffffffffffffffffffffffffffff16141515156100be57600080fd5b80600660006101000a81548173ffffffffffffffffffffffffffffffffffffffff021916908373ffffffffffffffffffffffffffffffffffffffff16021790555080600560006101000a81548173ffffffffffffffffffffffffffffffffffffffff021916908373ffffffffffffffffffffffffffffffffffffffff160217905550506133e680620001516000396000f3fe6080604052600436106100af576000357c0100000000000000000000000000000000000000000000000000000000900463ffffffff16806312065fe0146100b457806364f15bc5146100df57806383197ef0146101a957806389be772e146101c0578063a45b348d1461029f578063ab1ea2f61461030b578063b1663b191461035f578063b1768a46146104f7578063b18a684d146105d6578063c403e85e1461066a578063f2e0d7a414610802575b600080fd5b3480156100c057600080fd5b506100c9610966565b6040518082815260200191505060405180910390f35b3480156100eb57600080fd5b5061011c6004803603602081101561010257600080fd5b81019080803561ffff169060200190929190505050610985565b604051808060200184151515158152602001838152602001828103825285818151815260200191508051906020019080838360005b8381101561016c578082015181840152602081019050610151565b50505050905090810190601f1680156101995780820380516001836020036101000a031916815260200191505b5094505050505060405180910390f35b3480156101b557600080fd5b506101be610a54565b005b61029d600480360360808110156101d657600080fd5b81019080803561ffff1690602001909291908035906020019064010000000081111561020157600080fd5b82018360208201111561021357600080fd5b8035906020019184600183028401116401000000008311171561023557600080fd5b91908080601f016020809104026020016040519081016040528093929190818152602001838380828437600081840152601f19601f82011690508083019250505050505050919291929080351515906020019092919080359060200190929190505050610ae9565b005b3480156102ab57600080fd5b506102b4610efd565b6040518080602001828103825283818151815260200191508051906020019060200280838360005b838110156102f75780820151818401526020810190506102dc565b505050509050019250505060405180910390f35b61035d6004803603606081101561032157600080fd5b81019080803561ffff169060200190929190803567ffffffffffffffff169060200190929190803561ffff169060200190929190505050610f7d565b005b6104f5600480360360e081101561037557600080fd5b81019080803561ffff169060200190929190803567ffffffffffffffff169060200190929190803590602001906401000000008111156103b457600080fd5b8201836020820111156103c657600080fd5b803590602001918460018302840111640100000000831117156103e857600080fd5b91908080601f016020809104026020016040519081016040528093929190818152602001838380828437600081840152601f19601f8201169050808301925050505050505091929192908035906020019064010000000081111561044b57600080fd5b82018360208201111561045d57600080fd5b8035906020019184600183028401116401000000008311171561047f57600080fd5b91908080601f016020809104026020016040519081016040528093929190818152602001838380828437600081840152601f19601f82011690508083019250505050505050919291929080359060200190929190803561ffff169060200190929190803515159060200190929190505050611481565b005b6105d46004803603608081101561050d57600080fd5b81019080803561ffff1690602001909291908035906020019064010000000081111561053857600080fd5b82018360208201111561054a57600080fd5b8035906020019184600183028401116401000000008311171561056c57600080fd5b91908080601f016020809104026020016040519081016040528093929190818152602001838380828437600081840152601f19601f82011690508083019250505050505050919291929080351515906020019092919080359060200190929190505050611d36565b005b3480156105e257600080fd5b50610613600480360360208110156105f957600080fd5b81019080803561ffff16906020019092919050505061229b565b6040518080602001828103825283818151815260200191508051906020019060200280838360005b8381101561065657808201518184015260208101905061063b565b505050509050019250505060405180910390f35b610800600480360360e081101561068057600080fd5b81019080803561ffff169060200190929190803567ffffffffffffffff169060200190929190803590602001906401000000008111156106bf57600080fd5b8201836020820111156106d157600080fd5b803590602001918460018302840111640100000000831117156106f357600080fd5b91908080601f016020809104026020016040519081016040528093929190818152602001838380828437600081840152601f19601f8201169050808301925050505050505091929192908035906020019064010000000081111561075657600080fd5b82018360208201111561076857600080fd5b8035906020019184600183028401116401000000008311171561078a57600080fd5b91908080601f016020809104026020016040519081016040528093929190818152602001838380828437600081840152601f19601f82011690508083019250505050505050919291929080359060200190929190803561ffff169060200190929190803515159060200190929190505050612345565b005b34801561080e57600080fd5b506108536004803603604081101561082557600080fd5b81019080803561ffff169060200190929190803567ffffffffffffffff169060200190929190505050612c65565b6040518080602001806020018781526020018661ffff1661ffff1681526020018515151515815260200184151515158152602001838103835289818151815260200191508051906020019080838360005b838110156108bf5780820151818401526020810190506108a4565b50505050905090810190601f1680156108ec5780820380516001836020036101000a031916815260200191505b50838103825288818151815260200191508051906020019080838360005b8381101561092557808201518184015260208101905061090a565b50505050905090810190601f1680156109525780820380516001836020036101000a031916815260200191505b509850505050505050505060405180910390f35b60003073ffffffffffffffffffffffffffffffffffffffff1631905090565b6003602052806000526040600020600091509050806000018054600181600116156101000203166002900480601f016020809104026020016040519081016040528092919081815260200182805460018160011615610100020316600290048015610a315780601f10610a0657610100808354040283529160200191610a31565b820191906000526020600020905b815481529060010190602001808311610a1457829003601f168201915b5050505050908060010160009054906101000a900460ff16908060020154905083565b3373ffffffffffffffffffffffffffffffffffffffff166000809054906101000a900473ffffffffffffffffffffffffffffffffffffffff1673ffffffffffffffffffffffffffffffffffffffff16141515610aaf57600080fd5b6000809054906101000a900473ffffffffffffffffffffffffffffffffffffffff1673ffffffffffffffffffffffffffffffffffffffff16ff5b6000610af3612e06565b90507f212255cc5ff4a2d867f69451c60f51c24e41784276f4ceffe8ec3af3226907503382604051808373ffffffffffffffffffffffffffffffffffffffff1673ffffffffffffffffffffffffffffffffffffffff1681526020018215151515815260200180602001828103825260038152602001807f6164640000000000000000000000000000000000000000000000000000000000815250602001935050505060405180910390a160008561ffff1610151515610bb157600080fd5b6000600102600360008761ffff1661ffff1681526020019081526020016000206000016040516020018080602001828103825283818154600181600116156101000203166002900481526020019150805460018160011615610100020316600290048015610c605780601f10610c3557610100808354040283529160200191610c60565b820191906000526020600020905b815481529060010190602001808311610c4357829003601f168201915b50509250505060405160208183030381529060405280519060200120111515610d17576040517f08c379a00000000000000000000000000000000000000000000000000000000081526004018080602001828103825260228152602001807f6974656d2077697468207468697320636f646520616c7265616479206578697381526020017f747300000000000000000000000000000000000000000000000000000000000081525060400191505060405180910390fd5b6000600102846040516020018080602001828103825283818151815260200191508051906020019080838360005b83811015610d60578082015181840152602081019050610d45565b50505050905090810190601f168015610d8d5780820380516001836020036101000a031916815260200191505b509250505060405160208183030381529060405280519060200120111515610e1d576040517f08c379a000000000000000000000000000000000000000000000000000000000815260040180806020018281038252601e8152602001807f696d6167652073686f756c64206e6f74206265206c65667420656d707479000081525060200191505060405180910390fd5b600285908060018154018082558091505090600182039060005260206000209060109182820401919006600202909192909190916101000a81548161ffff021916908361ffff1602179055505083600360008761ffff1661ffff1681526020019081526020016000206000019080519060200190610e9c929190613315565b5082600360008761ffff1661ffff16815260200190815260200160002060010160006101000a81548160ff02191690831515021790555081600360008761ffff1661ffff168152602001908152602001600020600201819055505050505050565b60606002805480602002602001604051908101604052809291908181526020018280548015610f7357602002820191906000526020600020906000905b82829054906101000a900461ffff1661ffff1681526020019060020190602082600101049283019260010382029150808411610f3a5790505b5050505050905090565b60008267ffffffffffffffff1610151515611000576040517f08c379a000000000000000000000000000000000000000000000000000000000815260040180806020018281038252601d8152602001807f636f64652073686f756c642062652067726561746564207468616e203000000081525060200191505060405180910390fd5b60011515600460008561ffff1661ffff16815260200190815260200160002060008467ffffffffffffffff1667ffffffffffffffff16815260200190815260200160002060030160029054906101000a900460ff1615151415156110cc576040517f08c379a00000000000000000000000000000000000000000000000000000000081526004018080602001828103825260188152602001807f6974656d2073686f756c6420626520617661696c61626c65000000000000000081525060200191505060405180910390fd5b600460008461ffff1661ffff16815260200190815260200160002060008367ffffffffffffffff1667ffffffffffffffff16815260200190815260200160002060030160039054906101000a900460ff1615156111b7576040517f08c379a00000000000000000000000000000000000000000000000000000000081526004018080602001828103825260328152602001807f6974656d2077697468207468697320636f64652073686f756c6420616c72656181526020017f647920657869737420746f20757064617465000000000000000000000000000081525060400191505060405180910390fd5b8061ffff16600460008561ffff1661ffff16815260200190815260200160002060008467ffffffffffffffff1667ffffffffffffffff16815260200190815260200160002060030160009054906101000a900461ffff1661ffff1610151515611288576040517f08c379a000000000000000000000000000000000000000000000000000000000815260040180806020018281038252601d8152602001807f73746f636b207175616e746974792073686f756c64206265206d6f726500000081525060200191505060405180910390fd5b60008161ffff1610151515611305576040517f08c379a000000000000000000000000000000000000000000000000000000000815260040180806020018281038252601c8152602001807f7175616e746974792073686f756c642062652030206f72206d6f72650000000081525060200191505060405180910390fd5b611310838383613122565b80600460008561ffff1661ffff16815260200190815260200160002060008467ffffffffffffffff1667ffffffffffffffff16815260200190815260200160002060030160009054906101000a900461ffff1603600460008561ffff1661ffff16815260200190815260200160002060008467ffffffffffffffff1667ffffffffffffffff16815260200190815260200160002060030160006101000a81548161ffff021916908361ffff1602179055506000600460008561ffff1661ffff16815260200190815260200160002060008467ffffffffffffffff1667ffffffffffffffff16815260200190815260200160002060030160009054906101000a900461ffff1661ffff16141561147c576000600460008561ffff1661ffff16815260200190815260200160002060008467ffffffffffffffff1667ffffffffffffffff16815260200190815260200160002060030160026101000a81548160ff0219169083151502179055505b505050565b60006060600660009054906101000a900473ffffffffffffffffffffffffffffffffffffffff1673ffffffffffffffffffffffffffffffffffffffff1633604051602401808273ffffffffffffffffffffffffffffffffffffffff1673ffffffffffffffffffffffffffffffffffffffff1681526020019150506040516020818303038152906040527f18455759000000000000000000000000000000000000000000000000000000007bffffffffffffffffffffffffffffffffffffffffffffffffffffffff19166020820180517bffffffffffffffffffffffffffffffffffffffffffffffffffffffff83818316178352505050506040518082805190602001908083835b6020831015156115ad5780518252602082019150602081019050602083039250611588565b6001836020036101000a0380198251168184511680821785525050505050509050019150506000604051808303816000865af19150503d806000811461160f576040519150601f19603f3d011682016040523d82523d6000602084013e611614565b606091505b5091509150600081806020019051602081101561163057600080fd5b810190808051906020019092919050505090507f212255cc5ff4a2d867f69451c60f51c24e41784276f4ceffe8ec3af3226907503382604051808373ffffffffffffffffffffffffffffffffffffffff1673ffffffffffffffffffffffffffffffffffffffff16815260200182151515158152602001806020018281038252600a8152602001807f7265737472696374656400000000000000000000000000000000000000000000815250602001935050505060405180910390a18015156116f757600080fd5b60008967ffffffffffffffff161015151561177a576040517f08c379a000000000000000000000000000000000000000000000000000000000815260040180806020018281038252601d8152602001807f636f64652073686f756c642062652067726561746564207468616e203000000081525060200191505060405180910390fd5b600460008b61ffff1661ffff16815260200190815260200160002060008a67ffffffffffffffff1667ffffffffffffffff16815260200190815260200160002060030160039054906101000a900460ff161515611865576040517f08c379a00000000000000000000000000000000000000000000000000000000081526004018080602001828103825260328152602001807f6974656d2077697468207468697320636f64652073686f756c6420616c72656181526020017f647920657869737420746f20757064617465000000000000000000000000000081525060400191505060405180910390fd5b6000600102886040516020018080602001828103825283818151815260200191508051906020019080838360005b838110156118ae578082015181840152602081019050611893565b50505050905090810190601f1680156118db5780820380516001836020036101000a031916815260200191505b50925050506040516020818303038152906040528051906020012011151561196b576040517f08c379a000000000000000000000000000000000000000000000000000000000815260040180806020018281038252601e8152602001807f696d6167652073686f756c64206e6f74206265206c65667420656d707479000081525060200191505060405180910390fd5b6000600102876040516020018080602001828103825283818151815260200191508051906020019080838360005b838110156119b4578082015181840152602081019050611999565b50505050905090810190601f1680156119e15780820380516001836020036101000a031916815260200191505b509250505060405160208183030381529060405280519060200120111515611a71576040517f08c379a000000000000000000000000000000000000000000000000000000000815260040180806020018281038252601e8152602001807f7469746c652073686f756c64206e6f74206265206c65667420656d707479000081525060200191505060405180910390fd5b60008610151515611aea576040517f08c379a00000000000000000000000000000000000000000000000000000000081526004018080602001828103825260198152602001807f70726963652073686f756c642062652030206f72206d6f72650000000000000081525060200191505060405180910390fd5b60008561ffff1610151515611b67576040517f08c379a000000000000000000000000000000000000000000000000000000000815260040180806020018281038252601c8152602001807f7175616e746974792073686f756c642062652030206f72206d6f72650000000081525060200191505060405180910390fd5b87600460008c61ffff1661ffff16815260200190815260200160002060008b67ffffffffffffffff1667ffffffffffffffff1681526020019081526020016000206000019080519060200190611bbe929190613315565b5086600460008c61ffff1661ffff16815260200190815260200160002060008b67ffffffffffffffff1667ffffffffffffffff1681526020019081526020016000206001019080519060200190611c16929190613315565b5085600460008c61ffff1661ffff16815260200190815260200160002060008b67ffffffffffffffff1667ffffffffffffffff1681526020019081526020016000206002018190555084600460008c61ffff1661ffff16815260200190815260200160002060008b67ffffffffffffffff1667ffffffffffffffff16815260200190815260200160002060030160006101000a81548161ffff021916908361ffff16021790555060008561ffff161415611ccf57600093505b83600460008c61ffff1661ffff16815260200190815260200160002060008b67ffffffffffffffff1667ffffffffffffffff16815260200190815260200160002060030160026101000a81548160ff02191690831515021790555050505050505050505050565b60006060600660009054906101000a900473ffffffffffffffffffffffffffffffffffffffff1673ffffffffffffffffffffffffffffffffffffffff1633604051602401808273ffffffffffffffffffffffffffffffffffffffff1673ffffffffffffffffffffffffffffffffffffffff1681526020019150506040516020818303038152906040527f18455759000000000000000000000000000000000000000000000000000000007bffffffffffffffffffffffffffffffffffffffffffffffffffffffff19166020820180517bffffffffffffffffffffffffffffffffffffffffffffffffffffffff83818316178352505050506040518082805190602001908083835b602083101515611e625780518252602082019150602081019050602083039250611e3d565b6001836020036101000a0380198251168184511680821785525050505050509050019150506000604051808303816000865af19150503d8060008114611ec4576040519150601f19603f3d011682016040523d82523d6000602084013e611ec9565b606091505b50915091506000818060200190516020811015611ee557600080fd5b810190808051906020019092919050505090507f212255cc5ff4a2d867f69451c60f51c24e41784276f4ceffe8ec3af3226907503382604051808373ffffffffffffffffffffffffffffffffffffffff1673ffffffffffffffffffffffffffffffffffffffff16815260200182151515158152602001806020018281038252600a8152602001807f7265737472696374656400000000000000000000000000000000000000000000815250602001935050505060405180910390a1801515611fac57600080fd5b60008761ffff1610151515611fc057600080fd5b6000600102600360008961ffff1661ffff168152602001908152602001600020600001604051602001808060200182810382528381815460018160011615610100020316600290048152602001915080546001816001161561010002031660029004801561206f5780601f106120445761010080835404028352916020019161206f565b820191906000526020600020905b81548152906001019060200180831161205257829003601f168201915b50509250505060405160208183030381529060405280519060200120111515612100576040517f08c379a00000000000000000000000000000000000000000000000000000000081526004018080602001828103825260208152602001807f6974656d2073686f756c6420616c726561647920626520617661696c61626c6581525060200191505060405180910390fd5b6000600102866040516020018080602001828103825283818151815260200191508051906020019080838360005b8381101561214957808201518184015260208101905061212e565b50505050905090810190601f1680156121765780820380516001836020036101000a031916815260200191505b509250505060405160208183030381529060405280519060200120111515612206576040517f08c379a000000000000000000000000000000000000000000000000000000000815260040180806020018281038252601e8152602001807f696d6167652073686f756c64206e6f74206265206c65667420656d707479000081525060200191505060405180910390fd5b85600360008961ffff1661ffff1681526020019081526020016000206000019080519060200190612238929190613315565b5084600360008961ffff1661ffff16815260200190815260200160002060010160006101000a81548160ff02191690831515021790555083600360008961ffff1661ffff1681526020019081526020016000206002018190555050505050505050565b6060600360008361ffff1661ffff16815260200190815260200160002060030180548060200260200160405190810160405280929190818152602001828054801561233957602002820191906000526020600020906000905b82829054906101000a900467ffffffffffffffff1667ffffffffffffffff16815260200190600801906020826007010492830192600103820291508084116122f45790505b50505050509050919050565b60006060600660009054906101000a900473ffffffffffffffffffffffffffffffffffffffff1673ffffffffffffffffffffffffffffffffffffffff1633604051602401808273ffffffffffffffffffffffffffffffffffffffff1673ffffffffffffffffffffffffffffffffffffffff1681526020019150506040516020818303038152906040527f18455759000000000000000000000000000000000000000000000000000000007bffffffffffffffffffffffffffffffffffffffffffffffffffffffff19166020820180517bffffffffffffffffffffffffffffffffffffffffffffffffffffffff83818316178352505050506040518082805190602001908083835b602083101515612471578051825260208201915060208101905060208303925061244c565b6001836020036101000a0380198251168184511680821785525050505050509050019150506000604051808303816000865af19150503d80600081146124d3576040519150601f19603f3d011682016040523d82523d6000602084013e6124d8565b606091505b509150915060008180602001905160208110156124f457600080fd5b810190808051906020019092919050505090507f212255cc5ff4a2d867f69451c60f51c24e41784276f4ceffe8ec3af3226907503382604051808373ffffffffffffffffffffffffffffffffffffffff1673ffffffffffffffffffffffffffffffffffffffff16815260200182151515158152602001806020018281038252600a8152602001807f7265737472696374656400000000000000000000000000000000000000000000815250602001935050505060405180910390a18015156125bb57600080fd5b60008a61ffff16101515156125cf57600080fd5b60008967ffffffffffffffff16101515156125e957600080fd5b600460008b61ffff1661ffff16815260200190815260200160002060008a67ffffffffffffffff1667ffffffffffffffff16815260200190815260200160002060030160039054906101000a900460ff161515156126d5576040517f08c379a00000000000000000000000000000000000000000000000000000000081526004018080602001828103825260228152602001807f6974656d2077697468207468697320636f646520616c7265616479206578697381526020017f747300000000000000000000000000000000000000000000000000000000000081525060400191505060405180910390fd5b6000600102886040516020018080602001828103825283818151815260200191508051906020019080838360005b8381101561271e578082015181840152602081019050612703565b50505050905090810190601f16801561274b5780820380516001836020036101000a031916815260200191505b5092505050604051602081830303815290604052805190602001201115156127db576040517f08c379a000000000000000000000000000000000000000000000000000000000815260040180806020018281038252601e8152602001807f696d6167652073686f756c64206e6f74206265206c65667420656d707479000081525060200191505060405180910390fd5b6000600102876040516020018080602001828103825283818151815260200191508051906020019080838360005b83811015612824578082015181840152602081019050612809565b50505050905090810190601f1680156128515780820380516001836020036101000a031916815260200191505b5092505050604051602081830303815290604052805190602001201115156128e1576040517f08c379a000000000000000000000000000000000000000000000000000000000815260040180806020018281038252601e8152602001807f7469746c652073686f756c64206e6f74206265206c65667420656d707479000081525060200191505060405180910390fd5b6000861015151561295a576040517f08c379a00000000000000000000000000000000000000000000000000000000081526004018080602001828103825260198152602001807f70726963652073686f756c642062652030206f72206d6f72650000000000000081525060200191505060405180910390fd5b60008561ffff16101515156129d7576040517f08c379a000000000000000000000000000000000000000000000000000000000815260040180806020018281038252601c8152602001807f7175616e746974792073686f756c642062652030206f72206d6f72650000000081525060200191505060405180910390fd5b600360008b61ffff1661ffff16815260200190815260200160002060030189908060018154018082558091505090600182039060005260206000209060049182820401919006600802909192909190916101000a81548167ffffffffffffffff021916908367ffffffffffffffff1602179055505087600460008c61ffff1661ffff16815260200190815260200160002060008b67ffffffffffffffff1667ffffffffffffffff1681526020019081526020016000206000019080519060200190612aa3929190613315565b5086600460008c61ffff1661ffff16815260200190815260200160002060008b67ffffffffffffffff1667ffffffffffffffff1681526020019081526020016000206001019080519060200190612afb929190613315565b5085600460008c61ffff1661ffff16815260200190815260200160002060008b67ffffffffffffffff1667ffffffffffffffff1681526020019081526020016000206002018190555084600460008c61ffff1661ffff16815260200190815260200160002060008b67ffffffffffffffff1667ffffffffffffffff16815260200190815260200160002060030160006101000a81548161ffff021916908361ffff16021790555083600460008c61ffff1661ffff16815260200190815260200160002060008b67ffffffffffffffff1667ffffffffffffffff16815260200190815260200160002060030160026101000a81548160ff0219169083151502179055506001600460008c61ffff1661ffff16815260200190815260200160002060008b67ffffffffffffffff1667ffffffffffffffff16815260200190815260200160002060030160036101000a81548160ff02191690831515021790555050505050505050505050565b600460205281600052604060002060205280600052604060002060009150915050806000018054600181600116156101000203166002900480601f016020809104026020016040519081016040528092919081815260200182805460018160011615610100020316600290048015612d1e5780601f10612cf357610100808354040283529160200191612d1e565b820191906000526020600020905b815481529060010190602001808311612d0157829003601f168201915b505050505090806001018054600181600116156101000203166002900480601f016020809104026020016040519081016040528092919081815260200182805460018160011615610100020316600290048015612dbc5780601f10612d9157610100808354040283529160200191612dbc565b820191906000526020600020905b815481529060010190602001808311612d9f57829003601f168201915b5050505050908060020154908060030160009054906101000a900461ffff16908060030160029054906101000a900460ff16908060030160039054906101000a900460ff16905086565b6000806060600660009054906101000a900473ffffffffffffffffffffffffffffffffffffffff1673ffffffffffffffffffffffffffffffffffffffff1633604051602401808273ffffffffffffffffffffffffffffffffffffffff1673ffffffffffffffffffffffffffffffffffffffff1681526020019150506040516020818303038152906040527f18455759000000000000000000000000000000000000000000000000000000007bffffffffffffffffffffffffffffffffffffffffffffffffffffffff19166020820180517bffffffffffffffffffffffffffffffffffffffffffffffffffffffff83818316178352505050506040518082805190602001908083835b602083101515612f335780518252602082019150602081019050602083039250612f0e565b6001836020036101000a0380198251168184511680821785525050505050509050019150506000604051808303816000865af19150503d8060008114612f95576040519150601f19603f3d011682016040523d82523d6000602084013e612f9a565b606091505b50915091507f212255cc5ff4a2d867f69451c60f51c24e41784276f4ceffe8ec3af3226907503383604051808373ffffffffffffffffffffffffffffffffffffffff1673ffffffffffffffffffffffffffffffffffffffff1681526020018215151515815260200180602001828103825260138152602001807f697353746f72654d616e616765722063616c6c00000000000000000000000000815250602001935050505060405180910390a1600081806020019051602081101561305e57600080fd5b810190808051906020019092919050505090507f212255cc5ff4a2d867f69451c60f51c24e41784276f4ceffe8ec3af3226907503382604051808373ffffffffffffffffffffffffffffffffffffffff1673ffffffffffffffffffffffffffffffffffffffff1681526020018215151515815260200180602001828103825260168152602001807f697353746f72654d616e61676572206465636f64656400000000000000000000815250602001935050505060405180910390a180935050505090565b60008161ffff16600460008661ffff1661ffff16815260200190815260200160002060008567ffffffffffffffff1667ffffffffffffffff16815260200190815260200160002060020154029050803373ffffffffffffffffffffffffffffffffffffffff1631101515156131ff576040517f08c379a00000000000000000000000000000000000000000000000000000000081526004018080602001828103825260138152602001807f4e6f7420656e6f7567682062616c616e6365210000000000000000000000000081525060200191505060405180910390fd5b348114151561329c576040517f08c379a00000000000000000000000000000000000000000000000000000000081526004018080602001828103825260218152602001807f4f757374616e64696e672062616c616e636520646f6573206e6f74206d61746381526020017f680000000000000000000000000000000000000000000000000000000000000081525060400191505060405180910390fd5b3373ffffffffffffffffffffffffffffffffffffffff166108fc349081150290604051600060405180830381858888f193505050501580156132e2573d6000803e3d6000fd5b5034600360008661ffff1661ffff1681526020019081526020016000206002016000828254019250508190555050505050565b828054600181600116156101000203166002900490600052602060002090601f016020900481019282601f1061335657805160ff1916838001178555613384565b82800160010185558215613384579182015b82811115613383578251825591602001919060010190613368565b5b5090506133919190613395565b5090565b6133b791905b808211156133b357600081600090555060010161339b565b5090565b9056fea165627a7a7230582031aebc3c332b5f299ed707ecf4bb64c73e1c5a78a6a69852d36227e3fde9a00d0029",
  "source": "pragma solidity ^0.5.0;\r\n\r\nimport \"./StoreManagersInterface.sol\";\r\n\r\ncontract Stores { \r\n    address owner;\r\n\r\n    address funds;\r\n\r\n    struct StoreItem {\r\n        string image;\r\n        string title;\r\n        uint256 price;\r\n        uint16 quantity;\r\n        bool available;\r\n        bool exist;\r\n    }\r\n\r\n    struct Store {\r\n        string name;\r\n        bool active;\r\n        uint256 balance;\r\n        uint64[] itemCodes;\r\n    }   \r\n\r\n    uint16[] storeCodes;\r\n    mapping(uint16 => Store) public stores;\r\n    mapping(uint16 => mapping(uint64 => StoreItem)) public storeItems;\r\n\r\n    StoreManagersInterface storeManagers;\r\n    address storeManagersAddress;\r\n\r\n    event log(address sender, bool found, string text);\r\n\r\n    constructor(address storeManagersContractAddress) public { \r\n        owner = msg.sender;\r\n\r\n        require(storeManagersContractAddress != address(0));\r\n        storeManagersAddress = storeManagersContractAddress;\r\n        storeManagers = StoreManagersInterface(storeManagersContractAddress);\r\n    }\r\n\r\n    modifier restricted() {\r\n        (bool success, bytes memory data) = storeManagersAddress.call(abi.encodeWithSignature(\"isActiveStoreManager\",msg.sender));\r\n        (bool decoded) = abi.decode(data, (bool));\r\n\r\n        emit log(msg.sender, decoded, \"restricted\");\r\n\r\n        require(decoded); _;\r\n    }\r\n\r\n    modifier ownerRestricted() { \r\n        require(owner == msg.sender); _;\r\n    }\r\n\r\n    function getAllStoreCodes() public view returns ( uint16[] memory) {\r\n        return storeCodes;\r\n    }\r\n\r\n    function getAllItemCodes(uint16 storeCode) public view returns (uint64[] memory) {\r\n        return stores[storeCode].itemCodes;\r\n    }\r\n\r\n    function add(\r\n        uint16 storeCode, \r\n        string memory name, \r\n        bool active, \r\n        uint256 balance\r\n    ) public payable {\r\n        bool result = isStoreManager();\r\n        emit log(msg.sender, result, \"add\");\r\n        // require(isStoreManager());\r\n\r\n        require(storeCode >= 0);\r\n        require(keccak256(abi.encode(stores[storeCode].name)) > 0, \"item with this code already exists\");\r\n        require(keccak256(abi.encode(name)) > 0, \"image should not be left empty\");\r\n\r\n        storeCodes.push(storeCode);\r\n        stores[storeCode].name = name;\r\n        stores[storeCode].active = active;\r\n        stores[storeCode].balance = balance;\r\n    }\r\n\r\n    function update(uint16 storeCode, string memory name, bool active, uint256 balance) restricted public payable { \r\n        require(storeCode >= 0);\r\n        require(keccak256(abi.encode(stores[storeCode].name)) > 0, \"item should already be available\");\r\n        require(keccak256(abi.encode(name)) > 0, \"image should not be left empty\");\r\n\r\n        stores[storeCode].name = name;\r\n        stores[storeCode].active = active;\r\n        stores[storeCode].balance = balance;\r\n    }\r\n\r\n    function addItem(uint16 storeCode, uint64 code, string memory image, string memory title, uint256 price, uint16 quantity, bool available) restricted public payable {\r\n        \r\n        require(storeCode >= 0);\r\n        require(code >= 0);\r\n        require(!storeItems[storeCode][code].exist, \"item with this code already exists\");\r\n        require(keccak256(abi.encode(image)) > 0, \"image should not be left empty\");\r\n        require(keccak256(abi.encode(title)) > 0, \"title should not be left empty\");\r\n        require(price >= 0, \"price should be 0 or more\");\r\n        require(quantity >= 0, \"quantity should be 0 or more\");\r\n\r\n        stores[storeCode].itemCodes.push(code);\r\n\r\n        storeItems[storeCode][code].image = image;\r\n        storeItems[storeCode][code].title = title;\r\n        storeItems[storeCode][code].price = price;\r\n        storeItems[storeCode][code].quantity = quantity;\r\n        storeItems[storeCode][code].available = available;\r\n        storeItems[storeCode][code].exist = true;\r\n    }\r\n\r\n    function updateItem(uint16 storeCode, uint64 code, string memory image, string memory title, uint256 price, uint16 quantity, bool available) restricted public payable {\r\n        \r\n        require(code >= 0, \"code should be greated than 0\");\r\n        require(storeItems[storeCode][code].exist, \"item with this code should already exist to update\");\r\n        require(keccak256(abi.encode(image)) > 0, \"image should not be left empty\");\r\n        require(keccak256(abi.encode(title)) > 0, \"title should not be left empty\");\r\n        require(price >= 0, \"price should be 0 or more\");\r\n        require(quantity >= 0, \"quantity should be 0 or more\");\r\n\r\n        storeItems[storeCode][code].image = image;\r\n        storeItems[storeCode][code].title = title;\r\n        storeItems[storeCode][code].price = price;\r\n        storeItems[storeCode][code].quantity = quantity;\r\n\r\n        if(quantity == 0){\r\n            available = false;\r\n        }\r\n\r\n        storeItems[storeCode][code].available = available;\r\n    }\r\n\r\n    function getBalance() public view returns (uint256) { \r\n        return address(this).balance;\r\n    }\r\n\r\n    function buyItem(uint16 storeCode, uint64 code, uint16 quantity) public payable {\r\n         require(code >= 0, \"code should be greated than 0\");\r\n        require(storeItems[storeCode][code].available == true, \"item should be available\");\r\n        require(storeItems[storeCode][code].exist, \"item with this code should already exist to update\");\r\n        require(storeItems[storeCode][code].quantity >= quantity, \"stock quantity should be more\");\r\n        require(quantity >= 0, \"quantity should be 0 or more\");\r\n        \r\n        withdrawFunds(storeCode, code, quantity);\r\n        storeItems[storeCode][code].quantity = storeItems[storeCode][code].quantity - quantity;\r\n\r\n        if(storeItems[storeCode][code].quantity == 0){\r\n            storeItems[storeCode][code].available = false;\r\n        }\r\n    }\r\n\r\n     function withdrawFunds(uint16 storeCode, uint64 code, uint16 quantity) private {\r\n        uint256 outstandingBalance = storeItems[storeCode][code].price * quantity;\r\n\r\n        // address payable payableOwner = address(uint160(owner));       \r\n\r\n        require(msg.sender.balance >= outstandingBalance, \"Not enough balance!\");\r\n        require(outstandingBalance == msg.value, \"Oustanding balance does not match\");\r\n\r\n        // payableOwner.transfer(msg.value);\r\n        // payableOwner = msg.sender;\r\n        msg.sender.transfer(msg.value); // transfer funds;\r\n        stores[storeCode].balance += msg.value;\r\n    }\r\n\r\n    function isStoreManager() private returns (bool) {\r\n        (bool success, bytes memory data) = storeManagersAddress.call(abi.encodeWithSignature(\"isActiveStoreManager\",msg.sender));\r\n        emit log(msg.sender, success, \"isStoreManager call\");\r\n\r\n        (bool decoded) = abi.decode(data, (bool));\r\n        emit log(msg.sender, decoded, \"isStoreManager decoded\");\r\n        return decoded;\r\n    }\r\n\r\n    function destroy() ownerRestricted public {\r\n        selfdestruct(address(uint160(owner)));\r\n    }\r\n\r\n    function() external payable {\r\n        revert();\r\n    }\r\n}",
  "sourcePath": "C:/PersonalGit/Etherium.SmartContracts.Angular/contracts/Stores.sol",
  "compiler": {
    "name": "solc",
    "version": "0.5.0+commit.1d4f565a.Emscripten.clang"
  },
  "schemaVersion": "3.0.2",
  "updatedAt": "2019-02-17T11:12:16.950Z",
  "devdoc": {
    "methods": {}
  },
  "userdoc": {
    "methods": {}
  }
}