{
  "contractName": "Stores",
  "abi": [
    {
      "constant": true,
      "inputs": [
        {
          "name": "",
          "type": "uint16"
        }
      ],
      "name": "stores",
      "outputs": [
        {
          "name": "name",
          "type": "string"
        },
        {
          "name": "active",
          "type": "bool"
        },
        {
          "name": "balance",
          "type": "uint256"
        }
      ],
      "payable": false,
      "stateMutability": "view",
      "type": "function",
      "signature": "0x64f15bc5"
    },
    {
      "constant": true,
      "inputs": [
        {
          "name": "",
          "type": "uint16"
        },
        {
          "name": "",
          "type": "uint64"
        }
      ],
      "name": "storeItems",
      "outputs": [
        {
          "name": "image",
          "type": "string"
        },
        {
          "name": "title",
          "type": "string"
        },
        {
          "name": "price",
          "type": "uint256"
        },
        {
          "name": "quantity",
          "type": "uint16"
        },
        {
          "name": "available",
          "type": "bool"
        },
        {
          "name": "exist",
          "type": "bool"
        }
      ],
      "payable": false,
      "stateMutability": "view",
      "type": "function",
      "signature": "0xf2e0d7a4"
    },
    {
      "inputs": [
        {
          "name": "storeManagersContractAddress",
          "type": "address"
        }
      ],
      "payable": false,
      "stateMutability": "nonpayable",
      "type": "constructor",
      "signature": "constructor"
    },
    {
      "payable": true,
      "stateMutability": "payable",
      "type": "fallback"
    },
    {
      "constant": true,
      "inputs": [],
      "name": "getAllStoreCodes",
      "outputs": [
        {
          "name": "",
          "type": "uint16[]"
        }
      ],
      "payable": false,
      "stateMutability": "view",
      "type": "function",
      "signature": "0xa45b348d"
    },
    {
      "constant": true,
      "inputs": [
        {
          "name": "storeCode",
          "type": "uint16"
        }
      ],
      "name": "getAllItemCodes",
      "outputs": [
        {
          "name": "",
          "type": "uint64[]"
        }
      ],
      "payable": false,
      "stateMutability": "view",
      "type": "function",
      "signature": "0xb18a684d"
    },
    {
      "constant": false,
      "inputs": [
        {
          "name": "storeCode",
          "type": "uint16"
        },
        {
          "name": "name",
          "type": "string"
        },
        {
          "name": "active",
          "type": "bool"
        },
        {
          "name": "balance",
          "type": "uint256"
        }
      ],
      "name": "add",
      "outputs": [],
      "payable": true,
      "stateMutability": "payable",
      "type": "function",
      "signature": "0x89be772e"
    },
    {
      "constant": false,
      "inputs": [
        {
          "name": "storeCode",
          "type": "uint16"
        },
        {
          "name": "name",
          "type": "string"
        },
        {
          "name": "active",
          "type": "bool"
        },
        {
          "name": "balance",
          "type": "uint256"
        }
      ],
      "name": "update",
      "outputs": [],
      "payable": true,
      "stateMutability": "payable",
      "type": "function",
      "signature": "0xb1768a46"
    },
    {
      "constant": false,
      "inputs": [
        {
          "name": "storeCode",
          "type": "uint16"
        },
        {
          "name": "code",
          "type": "uint64"
        },
        {
          "name": "image",
          "type": "string"
        },
        {
          "name": "title",
          "type": "string"
        },
        {
          "name": "price",
          "type": "uint256"
        },
        {
          "name": "quantity",
          "type": "uint16"
        },
        {
          "name": "available",
          "type": "bool"
        }
      ],
      "name": "addItem",
      "outputs": [],
      "payable": true,
      "stateMutability": "payable",
      "type": "function",
      "signature": "0xc403e85e"
    },
    {
      "constant": false,
      "inputs": [
        {
          "name": "storeCode",
          "type": "uint16"
        },
        {
          "name": "code",
          "type": "uint64"
        },
        {
          "name": "image",
          "type": "string"
        },
        {
          "name": "title",
          "type": "string"
        },
        {
          "name": "price",
          "type": "uint256"
        },
        {
          "name": "quantity",
          "type": "uint16"
        },
        {
          "name": "available",
          "type": "bool"
        }
      ],
      "name": "updateItem",
      "outputs": [],
      "payable": true,
      "stateMutability": "payable",
      "type": "function",
      "signature": "0xb1663b19"
    },
    {
      "constant": true,
      "inputs": [],
      "name": "getBalance",
      "outputs": [
        {
          "name": "",
          "type": "uint256"
        }
      ],
      "payable": false,
      "stateMutability": "view",
      "type": "function",
      "signature": "0x12065fe0"
    },
    {
      "constant": false,
      "inputs": [
        {
          "name": "storeCode",
          "type": "uint16"
        },
        {
          "name": "code",
          "type": "uint64"
        },
        {
          "name": "quantity",
          "type": "uint16"
        }
      ],
      "name": "buyItem",
      "outputs": [],
      "payable": true,
      "stateMutability": "payable",
      "type": "function",
      "signature": "0xab1ea2f6"
    }
  ],
  "bytecode": "0x608060405234801561001057600080fd5b50604051602080612cf18339810180604052602081101561003057600080fd5b8101908080519060200190929190505050336000806101000a81548173ffffffffffffffffffffffffffffffffffffffff021916908373ffffffffffffffffffffffffffffffffffffffff160217905550600073ffffffffffffffffffffffffffffffffffffffff168173ffffffffffffffffffffffffffffffffffffffff16141515156100bd57600080fd5b80600560006101000a81548173ffffffffffffffffffffffffffffffffffffffff021916908373ffffffffffffffffffffffffffffffffffffffff16021790555050612be38061010e6000396000f3fe6080604052600436106100a4576000357c0100000000000000000000000000000000000000000000000000000000900463ffffffff16806312065fe0146100a957806364f15bc5146100d457806389be772e1461019e578063a45b348d1461027d578063ab1ea2f6146102e9578063b1663b191461033d578063b1768a46146104d5578063b18a684d146105b4578063c403e85e14610648578063f2e0d7a4146107e0575b600080fd5b3480156100b557600080fd5b506100be610944565b6040518082815260200191505060405180910390f35b3480156100e057600080fd5b50610111600480360360208110156100f757600080fd5b81019080803561ffff169060200190929190505050610963565b604051808060200184151515158152602001838152602001828103825285818151815260200191508051906020019080838360005b83811015610161578082015181840152602081019050610146565b50505050905090810190601f16801561018e5780820380516001836020036101000a031916815260200191505b5094505050505060405180910390f35b61027b600480360360808110156101b457600080fd5b81019080803561ffff169060200190929190803590602001906401000000008111156101df57600080fd5b8201836020820111156101f157600080fd5b8035906020019184600183028401116401000000008311171561021357600080fd5b91908080601f016020809104026020016040519081016040528093929190818152602001838380828437600081840152601f19601f82011690508083019250505050505050919291929080351515906020019092919080359060200190929190505050610a32565b005b34801561028957600080fd5b50610292610e8d565b6040518080602001828103825283818151815260200191508051906020019060200280838360005b838110156102d55780820151818401526020810190506102ba565b505050509050019250505060405180910390f35b61033b600480360360608110156102ff57600080fd5b81019080803561ffff169060200190929190803567ffffffffffffffff169060200190929190803561ffff169060200190929190505050610f0d565b005b6104d3600480360360e081101561035357600080fd5b81019080803561ffff169060200190929190803567ffffffffffffffff1690602001909291908035906020019064010000000081111561039257600080fd5b8201836020820111156103a457600080fd5b803590602001918460018302840111640100000000831117156103c657600080fd5b91908080601f016020809104026020016040519081016040528093929190818152602001838380828437600081840152601f19601f8201169050808301925050505050505091929192908035906020019064010000000081111561042957600080fd5b82018360208201111561043b57600080fd5b8035906020019184600183028401116401000000008311171561045d57600080fd5b91908080601f016020809104026020016040519081016040528093929190818152602001838380828437600081840152601f19601f82011690508083019250505050505050919291929080359060200190929190803561ffff169060200190929190803515159060200190929190505050611411565b005b6105b2600480360360808110156104eb57600080fd5b81019080803561ffff1690602001909291908035906020019064010000000081111561051657600080fd5b82018360208201111561052857600080fd5b8035906020019184600183028401116401000000008311171561054a57600080fd5b91908080601f016020809104026020016040519081016040528093929190818152602001838380828437600081840152601f19601f82011690508083019250505050505050919291929080351515906020019092919080359060200190929190505050611b49565b005b3480156105c057600080fd5b506105f1600480360360208110156105d757600080fd5b81019080803561ffff169060200190929190505050611f31565b6040518080602001828103825283818151815260200191508051906020019060200280838360005b83811015610634578082015181840152602081019050610619565b505050509050019250505060405180910390f35b6107de600480360360e081101561065e57600080fd5b81019080803561ffff169060200190929190803567ffffffffffffffff1690602001909291908035906020019064010000000081111561069d57600080fd5b8201836020820111156106af57600080fd5b803590602001918460018302840111640100000000831117156106d157600080fd5b91908080601f016020809104026020016040519081016040528093929190818152602001838380828437600081840152601f19601f8201169050808301925050505050505091929192908035906020019064010000000081111561073457600080fd5b82018360208201111561074657600080fd5b8035906020019184600183028401116401000000008311171561076857600080fd5b91908080601f016020809104026020016040519081016040528093929190818152602001838380828437600081840152601f19601f82011690508083019250505050505050919291929080359060200190929190803561ffff169060200190929190803515159060200190929190505050611fdb565b005b3480156107ec57600080fd5b506108316004803603604081101561080357600080fd5b81019080803561ffff169060200190929190803567ffffffffffffffff16906020019092919050505061277e565b6040518080602001806020018781526020018661ffff1661ffff1681526020018515151515815260200184151515158152602001838103835289818151815260200191508051906020019080838360005b8381101561089d578082015181840152602081019050610882565b50505050905090810190601f1680156108ca5780820380516001836020036101000a031916815260200191505b50838103825288818151815260200191508051906020019080838360005b838110156109035780820151818401526020810190506108e8565b50505050905090810190601f1680156109305780820380516001836020036101000a031916815260200191505b509850505050505050505060405180910390f35b60003073ffffffffffffffffffffffffffffffffffffffff1631905090565b6003602052806000526040600020600091509050806000018054600181600116156101000203166002900480601f016020809104026020016040519081016040528092919081815260200182805460018160011615610100020316600290048015610a0f5780601f106109e457610100808354040283529160200191610a0f565b820191906000526020600020905b8154815290600101906020018083116109f257829003601f168201915b5050505050908060010160009054906101000a900460ff16908060020154905083565b600560009054906101000a900473ffffffffffffffffffffffffffffffffffffffff1673ffffffffffffffffffffffffffffffffffffffff16632a09aa55336040518263ffffffff167c0100000000000000000000000000000000000000000000000000000000028152600401808273ffffffffffffffffffffffffffffffffffffffff1673ffffffffffffffffffffffffffffffffffffffff16815260200191505060206040518083038186803b158015610aed57600080fd5b505afa158015610b01573d6000803e3d6000fd5b505050506040513d6020811015610b1757600080fd5b810190808051906020019092919050505015610e875760008461ffff1610151515610b4157600080fd5b6000600102600360008661ffff1661ffff1681526020019081526020016000206000016040516020018080602001828103825283818154600181600116156101000203166002900481526020019150805460018160011615610100020316600290048015610bf05780601f10610bc557610100808354040283529160200191610bf0565b820191906000526020600020905b815481529060010190602001808311610bd357829003601f168201915b50509250505060405160208183030381529060405280519060200120111515610ca7576040517f08c379a00000000000000000000000000000000000000000000000000000000081526004018080602001828103825260228152602001807f6974656d2077697468207468697320636f646520616c7265616479206578697381526020017f747300000000000000000000000000000000000000000000000000000000000081525060400191505060405180910390fd5b6000600102836040516020018080602001828103825283818151815260200191508051906020019080838360005b83811015610cf0578082015181840152602081019050610cd5565b50505050905090810190601f168015610d1d5780820380516001836020036101000a031916815260200191505b509250505060405160208183030381529060405280519060200120111515610dad576040517f08c379a000000000000000000000000000000000000000000000000000000000815260040180806020018281038252601e8152602001807f696d6167652073686f756c64206e6f74206265206c65667420656d707479000081525060200191505060405180910390fd5b600284908060018154018082558091505090600182039060005260206000209060109182820401919006600202909192909190916101000a81548161ffff021916908361ffff1602179055505082600360008661ffff1661ffff1681526020019081526020016000206000019080519060200190610e2c929190612b12565b5081600360008661ffff1661ffff16815260200190815260200160002060010160006101000a81548160ff02191690831515021790555080600360008661ffff1661ffff168152602001908152602001600020600201819055505b50505050565b60606002805480602002602001604051908101604052809291908181526020018280548015610f0357602002820191906000526020600020906000905b82829054906101000a900461ffff1661ffff1681526020019060020190602082600101049283019260010382029150808411610eca5790505b5050505050905090565b60008267ffffffffffffffff1610151515610f90576040517f08c379a000000000000000000000000000000000000000000000000000000000815260040180806020018281038252601d8152602001807f636f64652073686f756c642062652067726561746564207468616e203000000081525060200191505060405180910390fd5b60011515600460008561ffff1661ffff16815260200190815260200160002060008467ffffffffffffffff1667ffffffffffffffff16815260200190815260200160002060030160029054906101000a900460ff16151514151561105c576040517f08c379a00000000000000000000000000000000000000000000000000000000081526004018080602001828103825260188152602001807f6974656d2073686f756c6420626520617661696c61626c65000000000000000081525060200191505060405180910390fd5b600460008461ffff1661ffff16815260200190815260200160002060008367ffffffffffffffff1667ffffffffffffffff16815260200190815260200160002060030160039054906101000a900460ff161515611147576040517f08c379a00000000000000000000000000000000000000000000000000000000081526004018080602001828103825260328152602001807f6974656d2077697468207468697320636f64652073686f756c6420616c72656181526020017f647920657869737420746f20757064617465000000000000000000000000000081525060400191505060405180910390fd5b8061ffff16600460008561ffff1661ffff16815260200190815260200160002060008467ffffffffffffffff1667ffffffffffffffff16815260200190815260200160002060030160009054906101000a900461ffff1661ffff1610151515611218576040517f08c379a000000000000000000000000000000000000000000000000000000000815260040180806020018281038252601d8152602001807f73746f636b207175616e746974792073686f756c64206265206d6f726500000081525060200191505060405180910390fd5b60008161ffff1610151515611295576040517f08c379a000000000000000000000000000000000000000000000000000000000815260040180806020018281038252601c8152602001807f7175616e746974792073686f756c642062652030206f72206d6f72650000000081525060200191505060405180910390fd5b6112a083838361291f565b80600460008561ffff1661ffff16815260200190815260200160002060008467ffffffffffffffff1667ffffffffffffffff16815260200190815260200160002060030160009054906101000a900461ffff1603600460008561ffff1661ffff16815260200190815260200160002060008467ffffffffffffffff1667ffffffffffffffff16815260200190815260200160002060030160006101000a81548161ffff021916908361ffff1602179055506000600460008561ffff1661ffff16815260200190815260200160002060008467ffffffffffffffff1667ffffffffffffffff16815260200190815260200160002060030160009054906101000a900461ffff1661ffff16141561140c576000600460008561ffff1661ffff16815260200190815260200160002060008467ffffffffffffffff1667ffffffffffffffff16815260200190815260200160002060030160026101000a81548160ff0219169083151502179055505b505050565b600560009054906101000a900473ffffffffffffffffffffffffffffffffffffffff1673ffffffffffffffffffffffffffffffffffffffff16632a09aa55336040518263ffffffff167c0100000000000000000000000000000000000000000000000000000000028152600401808273ffffffffffffffffffffffffffffffffffffffff1673ffffffffffffffffffffffffffffffffffffffff16815260200191505060206040518083038186803b1580156114cc57600080fd5b505afa1580156114e0573d6000803e3d6000fd5b505050506040513d60208110156114f657600080fd5b810190808051906020019092919050505015611b405760008667ffffffffffffffff161015151561158f576040517f08c379a000000000000000000000000000000000000000000000000000000000815260040180806020018281038252601d8152602001807f636f64652073686f756c642062652067726561746564207468616e203000000081525060200191505060405180910390fd5b600460008861ffff1661ffff16815260200190815260200160002060008767ffffffffffffffff1667ffffffffffffffff16815260200190815260200160002060030160039054906101000a900460ff16151561167a576040517f08c379a00000000000000000000000000000000000000000000000000000000081526004018080602001828103825260328152602001807f6974656d2077697468207468697320636f64652073686f756c6420616c72656181526020017f647920657869737420746f20757064617465000000000000000000000000000081525060400191505060405180910390fd5b6000600102856040516020018080602001828103825283818151815260200191508051906020019080838360005b838110156116c35780820151818401526020810190506116a8565b50505050905090810190601f1680156116f05780820380516001836020036101000a031916815260200191505b509250505060405160208183030381529060405280519060200120111515611780576040517f08c379a000000000000000000000000000000000000000000000000000000000815260040180806020018281038252601e8152602001807f696d6167652073686f756c64206e6f74206265206c65667420656d707479000081525060200191505060405180910390fd5b6000600102846040516020018080602001828103825283818151815260200191508051906020019080838360005b838110156117c95780820151818401526020810190506117ae565b50505050905090810190601f1680156117f65780820380516001836020036101000a031916815260200191505b509250505060405160208183030381529060405280519060200120111515611886576040517f08c379a000000000000000000000000000000000000000000000000000000000815260040180806020018281038252601e8152602001807f7469746c652073686f756c64206e6f74206265206c65667420656d707479000081525060200191505060405180910390fd5b600083101515156118ff576040517f08c379a00000000000000000000000000000000000000000000000000000000081526004018080602001828103825260198152602001807f70726963652073686f756c642062652030206f72206d6f72650000000000000081525060200191505060405180910390fd5b60008261ffff161015151561197c576040517f08c379a000000000000000000000000000000000000000000000000000000000815260040180806020018281038252601c8152602001807f7175616e746974792073686f756c642062652030206f72206d6f72650000000081525060200191505060405180910390fd5b84600460008961ffff1661ffff16815260200190815260200160002060008867ffffffffffffffff1667ffffffffffffffff16815260200190815260200160002060000190805190602001906119d3929190612b12565b5083600460008961ffff1661ffff16815260200190815260200160002060008867ffffffffffffffff1667ffffffffffffffff1681526020019081526020016000206001019080519060200190611a2b929190612b12565b5082600460008961ffff1661ffff16815260200190815260200160002060008867ffffffffffffffff1667ffffffffffffffff1681526020019081526020016000206002018190555081600460008961ffff1661ffff16815260200190815260200160002060008867ffffffffffffffff1667ffffffffffffffff16815260200190815260200160002060030160006101000a81548161ffff021916908361ffff16021790555060008261ffff161415611ae457600090505b80600460008961ffff1661ffff16815260200190815260200160002060008867ffffffffffffffff1667ffffffffffffffff16815260200190815260200160002060030160026101000a81548160ff0219169083151502179055505b50505050505050565b600560009054906101000a900473ffffffffffffffffffffffffffffffffffffffff1673ffffffffffffffffffffffffffffffffffffffff16632a09aa55336040518263ffffffff167c0100000000000000000000000000000000000000000000000000000000028152600401808273ffffffffffffffffffffffffffffffffffffffff1673ffffffffffffffffffffffffffffffffffffffff16815260200191505060206040518083038186803b158015611c0457600080fd5b505afa158015611c18573d6000803e3d6000fd5b505050506040513d6020811015611c2e57600080fd5b810190808051906020019092919050505015611f2b5760008461ffff1610151515611c5857600080fd5b6000600102600360008661ffff1661ffff1681526020019081526020016000206000016040516020018080602001828103825283818154600181600116156101000203166002900481526020019150805460018160011615610100020316600290048015611d075780601f10611cdc57610100808354040283529160200191611d07565b820191906000526020600020905b815481529060010190602001808311611cea57829003601f168201915b50509250505060405160208183030381529060405280519060200120111515611d98576040517f08c379a00000000000000000000000000000000000000000000000000000000081526004018080602001828103825260208152602001807f6974656d2073686f756c6420616c726561647920626520617661696c61626c6581525060200191505060405180910390fd5b6000600102836040516020018080602001828103825283818151815260200191508051906020019080838360005b83811015611de1578082015181840152602081019050611dc6565b50505050905090810190601f168015611e0e5780820380516001836020036101000a031916815260200191505b509250505060405160208183030381529060405280519060200120111515611e9e576040517f08c379a000000000000000000000000000000000000000000000000000000000815260040180806020018281038252601e8152602001807f696d6167652073686f756c64206e6f74206265206c65667420656d707479000081525060200191505060405180910390fd5b82600360008661ffff1661ffff1681526020019081526020016000206000019080519060200190611ed0929190612b12565b5081600360008661ffff1661ffff16815260200190815260200160002060010160006101000a81548160ff02191690831515021790555080600360008661ffff1661ffff168152602001908152602001600020600201819055505b50505050565b6060600360008361ffff1661ffff168152602001908152602001600020600301805480602002602001604051908101604052809291908181526020018280548015611fcf57602002820191906000526020600020906000905b82829054906101000a900467ffffffffffffffff1667ffffffffffffffff1681526020019060080190602082600701049283019260010382029150808411611f8a5790505b50505050509050919050565b600560009054906101000a900473ffffffffffffffffffffffffffffffffffffffff1673ffffffffffffffffffffffffffffffffffffffff16632a09aa55336040518263ffffffff167c0100000000000000000000000000000000000000000000000000000000028152600401808273ffffffffffffffffffffffffffffffffffffffff1673ffffffffffffffffffffffffffffffffffffffff16815260200191505060206040518083038186803b15801561209657600080fd5b505afa1580156120aa573d6000803e3d6000fd5b505050506040513d60208110156120c057600080fd5b8101908080519060200190929190505050156127755760008761ffff16101515156120ea57600080fd5b60008667ffffffffffffffff161015151561210457600080fd5b600460008861ffff1661ffff16815260200190815260200160002060008767ffffffffffffffff1667ffffffffffffffff16815260200190815260200160002060030160039054906101000a900460ff161515156121f0576040517f08c379a00000000000000000000000000000000000000000000000000000000081526004018080602001828103825260228152602001807f6974656d2077697468207468697320636f646520616c7265616479206578697381526020017f747300000000000000000000000000000000000000000000000000000000000081525060400191505060405180910390fd5b6000600102856040516020018080602001828103825283818151815260200191508051906020019080838360005b8381101561223957808201518184015260208101905061221e565b50505050905090810190601f1680156122665780820380516001836020036101000a031916815260200191505b5092505050604051602081830303815290604052805190602001201115156122f6576040517f08c379a000000000000000000000000000000000000000000000000000000000815260040180806020018281038252601e8152602001807f696d6167652073686f756c64206e6f74206265206c65667420656d707479000081525060200191505060405180910390fd5b6000600102846040516020018080602001828103825283818151815260200191508051906020019080838360005b8381101561233f578082015181840152602081019050612324565b50505050905090810190601f16801561236c5780820380516001836020036101000a031916815260200191505b5092505050604051602081830303815290604052805190602001201115156123fc576040517f08c379a000000000000000000000000000000000000000000000000000000000815260040180806020018281038252601e8152602001807f7469746c652073686f756c64206e6f74206265206c65667420656d707479000081525060200191505060405180910390fd5b60008310151515612475576040517f08c379a00000000000000000000000000000000000000000000000000000000081526004018080602001828103825260198152602001807f70726963652073686f756c642062652030206f72206d6f72650000000000000081525060200191505060405180910390fd5b60008261ffff16101515156124f2576040517f08c379a000000000000000000000000000000000000000000000000000000000815260040180806020018281038252601c8152602001807f7175616e746974792073686f756c642062652030206f72206d6f72650000000081525060200191505060405180910390fd5b600360008861ffff1661ffff16815260200190815260200160002060030186908060018154018082558091505090600182039060005260206000209060049182820401919006600802909192909190916101000a81548167ffffffffffffffff021916908367ffffffffffffffff1602179055505084600460008961ffff1661ffff16815260200190815260200160002060008867ffffffffffffffff1667ffffffffffffffff16815260200190815260200160002060000190805190602001906125be929190612b12565b5083600460008961ffff1661ffff16815260200190815260200160002060008867ffffffffffffffff1667ffffffffffffffff1681526020019081526020016000206001019080519060200190612616929190612b12565b5082600460008961ffff1661ffff16815260200190815260200160002060008867ffffffffffffffff1667ffffffffffffffff1681526020019081526020016000206002018190555081600460008961ffff1661ffff16815260200190815260200160002060008867ffffffffffffffff1667ffffffffffffffff16815260200190815260200160002060030160006101000a81548161ffff021916908361ffff16021790555080600460008961ffff1661ffff16815260200190815260200160002060008867ffffffffffffffff1667ffffffffffffffff16815260200190815260200160002060030160026101000a81548160ff0219169083151502179055506001600460008961ffff1661ffff16815260200190815260200160002060008867ffffffffffffffff1667ffffffffffffffff16815260200190815260200160002060030160036101000a81548160ff0219169083151502179055505b50505050505050565b600460205281600052604060002060205280600052604060002060009150915050806000018054600181600116156101000203166002900480601f0160208091040260200160405190810160405280929190818152602001828054600181600116156101000203166002900480156128375780601f1061280c57610100808354040283529160200191612837565b820191906000526020600020905b81548152906001019060200180831161281a57829003601f168201915b505050505090806001018054600181600116156101000203166002900480601f0160208091040260200160405190810160405280929190818152602001828054600181600116156101000203166002900480156128d55780601f106128aa576101008083540402835291602001916128d5565b820191906000526020600020905b8154815290600101906020018083116128b857829003601f168201915b5050505050908060020154908060030160009054906101000a900461ffff16908060030160029054906101000a900460ff16908060030160039054906101000a900460ff16905086565b60008161ffff16600460008661ffff1661ffff16815260200190815260200160002060008567ffffffffffffffff1667ffffffffffffffff16815260200190815260200160002060020154029050803373ffffffffffffffffffffffffffffffffffffffff1631101515156129fc576040517f08c379a00000000000000000000000000000000000000000000000000000000081526004018080602001828103825260138152602001807f4e6f7420656e6f7567682062616c616e6365210000000000000000000000000081525060200191505060405180910390fd5b3481141515612a99576040517f08c379a00000000000000000000000000000000000000000000000000000000081526004018080602001828103825260218152602001807f4f757374616e64696e672062616c616e636520646f6573206e6f74206d61746381526020017f680000000000000000000000000000000000000000000000000000000000000081525060400191505060405180910390fd5b3373ffffffffffffffffffffffffffffffffffffffff166108fc349081150290604051600060405180830381858888f19350505050158015612adf573d6000803e3d6000fd5b5034600360008661ffff1661ffff1681526020019081526020016000206002016000828254019250508190555050505050565b828054600181600116156101000203166002900490600052602060002090601f016020900481019282601f10612b5357805160ff1916838001178555612b81565b82800160010185558215612b81579182015b82811115612b80578251825591602001919060010190612b65565b5b509050612b8e9190612b92565b5090565b612bb491905b80821115612bb0576000816000905550600101612b98565b5090565b9056fea165627a7a72305820fbfc497129e6a9979ec3e225005fd427927de09e829c98c500982a497e16c1800029",
  "source": "pragma solidity ^0.5.0;\r\n\r\ninterface StoreManagersInterface {\r\n    function isActiveStoreManager(address storeManager) external view returns (bool);\r\n}\r\n\r\ncontract Stores { \r\n    address owner;\r\n\r\n    address funds;\r\n\r\n    struct StoreItem {\r\n        string image;\r\n        string title;\r\n        uint256 price;\r\n        uint16 quantity;\r\n        bool available;\r\n        bool exist;\r\n    }\r\n\r\n    struct Store {\r\n        string name;\r\n        bool active;\r\n        uint256 balance;\r\n        uint64[] itemCodes;\r\n    }   \r\n\r\n    uint16[] storeCodes;\r\n    mapping(uint16 => Store) public stores;\r\n    mapping(uint16 => mapping(uint64 => StoreItem)) public storeItems;\r\n\r\n    StoreManagersInterface storeManagers;\r\n\r\n    constructor(address storeManagersContractAddress) public { \r\n        owner = msg.sender;\r\n\r\n        require(storeManagersContractAddress != address(0));\r\n        storeManagers = StoreManagersInterface(storeManagersContractAddress);\r\n    }\r\n\r\n    modifier restricted() {\r\n        if (storeManagers.isActiveStoreManager(msg.sender)) _;\r\n    }\r\n\r\n    function getAllStoreCodes() public view returns ( uint16[] memory) {\r\n        return storeCodes;\r\n    }\r\n\r\n    function getAllItemCodes(uint16 storeCode) public view returns (uint64[] memory) {\r\n        return stores[storeCode].itemCodes;\r\n    }\r\n\r\n    function add(uint16 storeCode, string memory name, bool active, uint256 balance) restricted public payable {\r\n        require(storeCode >= 0);\r\n        require(keccak256(abi.encode(stores[storeCode].name)) > 0, \"item with this code already exists\");\r\n        require(keccak256(abi.encode(name)) > 0, \"image should not be left empty\");\r\n\r\n        storeCodes.push(storeCode);\r\n        stores[storeCode].name = name;\r\n        stores[storeCode].active = active;\r\n        stores[storeCode].balance = balance;\r\n    }\r\n\r\n    function update(uint16 storeCode, string memory name, bool active, uint256 balance) restricted public payable { \r\n        require(storeCode >= 0);\r\n        require(keccak256(abi.encode(stores[storeCode].name)) > 0, \"item should already be available\");\r\n        require(keccak256(abi.encode(name)) > 0, \"image should not be left empty\");\r\n\r\n        stores[storeCode].name = name;\r\n        stores[storeCode].active = active;\r\n        stores[storeCode].balance = balance;\r\n    }\r\n\r\n    function addItem(uint16 storeCode, uint64 code, string memory image, string memory title, uint256 price, uint16 quantity, bool available) restricted public payable {\r\n        \r\n        require(storeCode >= 0);\r\n        require(code >= 0);\r\n        require(!storeItems[storeCode][code].exist, \"item with this code already exists\");\r\n        require(keccak256(abi.encode(image)) > 0, \"image should not be left empty\");\r\n        require(keccak256(abi.encode(title)) > 0, \"title should not be left empty\");\r\n        require(price >= 0, \"price should be 0 or more\");\r\n        require(quantity >= 0, \"quantity should be 0 or more\");\r\n\r\n        stores[storeCode].itemCodes.push(code);\r\n\r\n        storeItems[storeCode][code].image = image;\r\n        storeItems[storeCode][code].title = title;\r\n        storeItems[storeCode][code].price = price;\r\n        storeItems[storeCode][code].quantity = quantity;\r\n        storeItems[storeCode][code].available = available;\r\n        storeItems[storeCode][code].exist = true;\r\n    }\r\n\r\n    function updateItem(uint16 storeCode, uint64 code, string memory image, string memory title, uint256 price, uint16 quantity, bool available) restricted public payable {\r\n        \r\n        require(code >= 0, \"code should be greated than 0\");\r\n        require(storeItems[storeCode][code].exist, \"item with this code should already exist to update\");\r\n        require(keccak256(abi.encode(image)) > 0, \"image should not be left empty\");\r\n        require(keccak256(abi.encode(title)) > 0, \"title should not be left empty\");\r\n        require(price >= 0, \"price should be 0 or more\");\r\n        require(quantity >= 0, \"quantity should be 0 or more\");\r\n\r\n        storeItems[storeCode][code].image = image;\r\n        storeItems[storeCode][code].title = title;\r\n        storeItems[storeCode][code].price = price;\r\n        storeItems[storeCode][code].quantity = quantity;\r\n\r\n        if(quantity == 0){\r\n            available = false;\r\n        }\r\n\r\n        storeItems[storeCode][code].available = available;\r\n    }\r\n\r\n    function getBalance() public view returns (uint256) { \r\n        return address(this).balance;\r\n    }\r\n\r\n    function buyItem(uint16 storeCode, uint64 code, uint16 quantity) public payable {\r\n         require(code >= 0, \"code should be greated than 0\");\r\n        require(storeItems[storeCode][code].available == true, \"item should be available\");\r\n        require(storeItems[storeCode][code].exist, \"item with this code should already exist to update\");\r\n        require(storeItems[storeCode][code].quantity >= quantity, \"stock quantity should be more\");\r\n        require(quantity >= 0, \"quantity should be 0 or more\");\r\n        \r\n        withdrawFunds(storeCode, code, quantity);\r\n        storeItems[storeCode][code].quantity = storeItems[storeCode][code].quantity - quantity;\r\n\r\n        if(storeItems[storeCode][code].quantity == 0){\r\n            storeItems[storeCode][code].available = false;\r\n        }\r\n    }\r\n\r\n     function withdrawFunds(uint16 storeCode, uint64 code, uint16 quantity) private {\r\n        uint256 outstandingBalance = storeItems[storeCode][code].price * quantity;\r\n\r\n        // address payable payableOwner = address(uint160(owner));       \r\n\r\n        require(msg.sender.balance >= outstandingBalance, \"Not enough balance!\");\r\n        require(outstandingBalance == msg.value, \"Oustanding balance does not match\");\r\n\r\n        // payableOwner.transfer(msg.value);\r\n        // payableOwner = msg.sender;\r\n        msg.sender.transfer(msg.value); // transfer funds;\r\n        stores[storeCode].balance += msg.value;\r\n    }\r\n\r\n    function() external payable {\r\n        revert();\r\n    }\r\n}",
  "sourcePath": "C:/PersonalGit/Etherium.SmartContracts.Angular/contracts/Stores.sol",
  "compiler": {
    "name": "solc",
    "version": "0.5.0+commit.1d4f565a.Emscripten.clang"
  },
  "schemaVersion": "3.0.1",
  "updatedAt": "2019-02-13T14:24:49.080Z",
  "devdoc": {
    "methods": {}
  },
  "userdoc": {
    "methods": {}
  }
}