{
  "contractName": "StoreManagers",
  "abi": [
    {
      "inputs": [],
      "payable": false,
      "stateMutability": "nonpayable",
      "type": "constructor",
      "signature": "constructor"
    },
    {
      "payable": true,
      "stateMutability": "payable",
      "type": "fallback"
    },
    {
      "anonymous": false,
      "inputs": [
        {
          "indexed": false,
          "name": "sender",
          "type": "address"
        },
        {
          "indexed": false,
          "name": "found",
          "type": "bool"
        }
      ],
      "name": "log",
      "type": "event",
      "signature": "0x75b605d31a3bf49c8d814696c7c66216d3a7e81348c450078f032e425592f72b"
    },
    {
      "constant": true,
      "inputs": [],
      "name": "isOwner",
      "outputs": [
        {
          "name": "",
          "type": "bool"
        }
      ],
      "payable": false,
      "stateMutability": "view",
      "type": "function",
      "signature": "0x8f32d59b"
    },
    {
      "constant": false,
      "inputs": [
        {
          "name": "storeManager",
          "type": "address"
        }
      ],
      "name": "isActiveStoreManager",
      "outputs": [
        {
          "name": "",
          "type": "bool"
        }
      ],
      "payable": false,
      "stateMutability": "nonpayable",
      "type": "function",
      "signature": "0x2a09aa55"
    },
    {
      "constant": true,
      "inputs": [],
      "name": "getAll",
      "outputs": [
        {
          "name": "",
          "type": "address[]"
        }
      ],
      "payable": false,
      "stateMutability": "view",
      "type": "function",
      "signature": "0x53ed5143"
    },
    {
      "constant": false,
      "inputs": [
        {
          "name": "manager",
          "type": "address"
        }
      ],
      "name": "add",
      "outputs": [],
      "payable": true,
      "stateMutability": "payable",
      "type": "function",
      "signature": "0x0a3b0a4f"
    },
    {
      "constant": false,
      "inputs": [
        {
          "name": "index",
          "type": "uint256"
        }
      ],
      "name": "remove",
      "outputs": [],
      "payable": true,
      "stateMutability": "payable",
      "type": "function",
      "signature": "0x4cc82215"
    }
  ],
  "bytecode": "0x608060405234801561001057600080fd5b50336000806101000a81548173ffffffffffffffffffffffffffffffffffffffff021916908373ffffffffffffffffffffffffffffffffffffffff160217905550610742806100606000396000f3fe60806040526004361061006d576000357c0100000000000000000000000000000000000000000000000000000000900463ffffffff1680630a3b0a4f146100725780632a09aa55146100b65780634cc822151461011f57806353ed51431461014d5780638f32d59b146101b9575b600080fd5b6100b46004803603602081101561008857600080fd5b81019080803573ffffffffffffffffffffffffffffffffffffffff1690602001909291905050506101e8565b005b3480156100c257600080fd5b50610105600480360360208110156100d957600080fd5b81019080803573ffffffffffffffffffffffffffffffffffffffff169060200190929190505050610304565b604051808215151515815260200191505060405180910390f35b61014b6004803603602081101561013557600080fd5b81019080803590602001909291905050506103ce565b005b34801561015957600080fd5b506101626105e0565b6040518080602001828103825283818151815260200191508051906020019060200280838360005b838110156101a557808201518184015260208101905061018a565b505050509050019250505060405180910390f35b3480156101c557600080fd5b506101ce61066e565b604051808215151515815260200191505060405180910390f35b6000809054906101000a900473ffffffffffffffffffffffffffffffffffffffff1673ffffffffffffffffffffffffffffffffffffffff163373ffffffffffffffffffffffffffffffffffffffff1614151561024357600080fd5b60018190806001815401808255809150509060018203906000526020600020016000909192909190916101000a81548173ffffffffffffffffffffffffffffffffffffffff021916908373ffffffffffffffffffffffffffffffffffffffff160217905550506001600260008373ffffffffffffffffffffffffffffffffffffffff1673ffffffffffffffffffffffffffffffffffffffff16815260200190815260200160002060006101000a81548160ff02191690831515021790555050565b600080600260008473ffffffffffffffffffffffffffffffffffffffff1673ffffffffffffffffffffffffffffffffffffffff16815260200190815260200160002060009054906101000a900460ff1690507f75b605d31a3bf49c8d814696c7c66216d3a7e81348c450078f032e425592f72b8382604051808373ffffffffffffffffffffffffffffffffffffffff1673ffffffffffffffffffffffffffffffffffffffff168152602001821515151581526020019250505060405180910390a180915050919050565b6000809054906101000a900473ffffffffffffffffffffffffffffffffffffffff1673ffffffffffffffffffffffffffffffffffffffff163373ffffffffffffffffffffffffffffffffffffffff1614151561042957600080fd5b600060018281548110151561043a57fe5b9060005260206000200160009054906101000a900473ffffffffffffffffffffffffffffffffffffffff1690506000600260008373ffffffffffffffffffffffffffffffffffffffff1673ffffffffffffffffffffffffffffffffffffffff16815260200190815260200160002060006101000a81548160ff0219169083151502179055506001828154811015156104ce57fe5b9060005260206000200160006101000a81549073ffffffffffffffffffffffffffffffffffffffff02191690556001805490508210151561050f57506105dd565b60008290505b60018080549050038110156105c457600180820181548110151561053557fe5b9060005260206000200160009054906101000a900473ffffffffffffffffffffffffffffffffffffffff1660018281548110151561056f57fe5b9060005260206000200160006101000a81548173ffffffffffffffffffffffffffffffffffffffff021916908373ffffffffffffffffffffffffffffffffffffffff1602179055508080600101915050610515565b5060018054809190600190036105da91906106c5565b50505b50565b6060600180548060200260200160405190810160405280929190818152602001828054801561066457602002820191906000526020600020905b8160009054906101000a900473ffffffffffffffffffffffffffffffffffffffff1673ffffffffffffffffffffffffffffffffffffffff168152602001906001019080831161061a575b5050505050905090565b60008060009054906101000a900473ffffffffffffffffffffffffffffffffffffffff1673ffffffffffffffffffffffffffffffffffffffff163373ffffffffffffffffffffffffffffffffffffffff1614905090565b8154818355818111156106ec578183600052602060002091820191016106eb91906106f1565b5b505050565b61071391905b8082111561070f5760008160009055506001016106f7565b5090565b9056fea165627a7a723058207af6fc86965547b49d1379d5aafd10e24a98ad616017c98ab750d7b257e1f25e0029",
  "source": "pragma solidity ^0.5.0;\r\n\r\nimport \"./StoreManagersInterface.sol\";\r\n\r\ncontract StoreManagers is StoreManagersInterface { \r\n\r\n    address owner;\r\n    \r\n    address[] storeManagers;\r\n    mapping(address => bool) activeStoreManagers;\r\n\r\n    event log(address sender, bool found);\r\n\r\n    constructor() public {\r\n        owner = msg.sender;\r\n    }\r\n  \r\n    modifier restricted() {\r\n        require(msg.sender == owner); _;\r\n    }\r\n\r\n    function isOwner() public view returns (bool) {\r\n        return msg.sender == owner;\r\n    }\r\n\r\n    function isActiveStoreManager(address storeManager) public returns (bool){\r\n        bool selectedStoreManager = activeStoreManagers[storeManager];\r\n        emit log(storeManager, selectedStoreManager);\r\n        return selectedStoreManager;\r\n    }\r\n\r\n    function getAll() public view returns (address[] memory){\r\n        return storeManagers;\r\n    }\r\n\r\n    function add(address manager) restricted public payable {\r\n        storeManagers.push(manager);\r\n        activeStoreManagers[manager] = true;\r\n    }\r\n\r\n    function remove(uint index) restricted public payable {\r\n        address storeManagerAddress = storeManagers[index];\r\n        activeStoreManagers[storeManagerAddress] = false;\r\n\r\n        delete storeManagers[index];\r\n        if (index >= storeManagers.length) return;\r\n\r\n        for (uint i = index; i < storeManagers.length-1; i++){\r\n            storeManagers[i] = storeManagers[i+1];\r\n        }\r\n        storeManagers.length--;\r\n    }\r\n\r\n    function() external payable {\r\n        revert();\r\n    }\r\n\r\n}",
  "sourcePath": "C:/PersonalGit/Etherium.SmartContracts.Angular/contracts/StoreManagers.sol",
  "compiler": {
    "name": "solc",
    "version": "0.5.0+commit.1d4f565a.Emscripten.clang"
  },
  "schemaVersion": "3.0.2",
  "updatedAt": "2019-02-17T11:12:16.939Z",
  "devdoc": {
    "methods": {}
  },
  "userdoc": {
    "methods": {}
  }
}