{
  "contractName": "StoreManagers",
  "abi": [
    {
      "inputs": [],
      "payable": false,
      "stateMutability": "nonpayable",
      "type": "constructor",
      "signature": "constructor"
    },
    {
      "payable": true,
      "stateMutability": "payable",
      "type": "fallback"
    },
    {
      "constant": true,
      "inputs": [],
      "name": "isOwner",
      "outputs": [
        {
          "name": "",
          "type": "bool"
        }
      ],
      "payable": false,
      "stateMutability": "view",
      "type": "function",
      "signature": "0x8f32d59b"
    },
    {
      "constant": true,
      "inputs": [
        {
          "name": "storeManager",
          "type": "address"
        }
      ],
      "name": "isActiveStoreManager",
      "outputs": [
        {
          "name": "",
          "type": "bool"
        }
      ],
      "payable": false,
      "stateMutability": "view",
      "type": "function",
      "signature": "0x2a09aa55"
    },
    {
      "constant": true,
      "inputs": [],
      "name": "getAll",
      "outputs": [
        {
          "name": "",
          "type": "address[]"
        }
      ],
      "payable": false,
      "stateMutability": "view",
      "type": "function",
      "signature": "0x53ed5143"
    },
    {
      "constant": false,
      "inputs": [
        {
          "name": "manager",
          "type": "address"
        }
      ],
      "name": "add",
      "outputs": [],
      "payable": true,
      "stateMutability": "payable",
      "type": "function",
      "signature": "0x0a3b0a4f"
    },
    {
      "constant": false,
      "inputs": [
        {
          "name": "manager",
          "type": "address"
        },
        {
          "name": "status",
          "type": "bool"
        }
      ],
      "name": "update",
      "outputs": [],
      "payable": true,
      "stateMutability": "payable",
      "type": "function",
      "signature": "0xea84bfee"
    },
    {
      "constant": false,
      "inputs": [
        {
          "name": "index",
          "type": "uint256"
        }
      ],
      "name": "remove",
      "outputs": [],
      "payable": true,
      "stateMutability": "payable",
      "type": "function",
      "signature": "0x4cc82215"
    }
  ],
  "bytecode": "0x608060405234801561001057600080fd5b50336000806101000a81548173ffffffffffffffffffffffffffffffffffffffff021916908373ffffffffffffffffffffffffffffffffffffffff1602179055506107db806100606000396000f3fe608060405260043610610078576000357c0100000000000000000000000000000000000000000000000000000000900463ffffffff1680630a3b0a4f1461007d5780632a09aa55146100c15780634cc822151461012a57806353ed5143146101585780638f32d59b146101c4578063ea84bfee146101f3575b600080fd5b6100bf6004803603602081101561009357600080fd5b81019080803573ffffffffffffffffffffffffffffffffffffffff169060200190929190505050610243565b005b3480156100cd57600080fd5b50610110600480360360208110156100e457600080fd5b81019080803573ffffffffffffffffffffffffffffffffffffffff16906020019092919050505061035f565b604051808215151515815260200191505060405180910390f35b6101566004803603602081101561014057600080fd5b81019080803590602001909291905050506103ba565b005b34801561016457600080fd5b5061016d6105c3565b6040518080602001828103825283818151815260200191508051906020019060200280838360005b838110156101b0578082015181840152602081019050610195565b505050509050019250505060405180910390f35b3480156101d057600080fd5b506101d9610651565b604051808215151515815260200191505060405180910390f35b6102416004803603604081101561020957600080fd5b81019080803573ffffffffffffffffffffffffffffffffffffffff1690602001909291908035151590602001909291905050506106a8565b005b6000809054906101000a900473ffffffffffffffffffffffffffffffffffffffff1673ffffffffffffffffffffffffffffffffffffffff163373ffffffffffffffffffffffffffffffffffffffff1614151561029e57600080fd5b60018190806001815401808255809150509060018203906000526020600020016000909192909190916101000a81548173ffffffffffffffffffffffffffffffffffffffff021916908373ffffffffffffffffffffffffffffffffffffffff160217905550506001600260008373ffffffffffffffffffffffffffffffffffffffff1673ffffffffffffffffffffffffffffffffffffffff16815260200190815260200160002060006101000a81548160ff02191690831515021790555050565b600080600260008473ffffffffffffffffffffffffffffffffffffffff1673ffffffffffffffffffffffffffffffffffffffff16815260200190815260200160002060009054906101000a900460ff16905080915050919050565b6000809054906101000a900473ffffffffffffffffffffffffffffffffffffffff1673ffffffffffffffffffffffffffffffffffffffff163373ffffffffffffffffffffffffffffffffffffffff1614151561041557600080fd5b600060018281548110151561042657fe5b9060005260206000200160009054906101000a900473ffffffffffffffffffffffffffffffffffffffff169050600260008273ffffffffffffffffffffffffffffffffffffffff1673ffffffffffffffffffffffffffffffffffffffff16815260200190815260200160002060006101000a81549060ff02191690556001828154811015156104b157fe5b9060005260206000200160006101000a81549073ffffffffffffffffffffffffffffffffffffffff0219169055600180549050821015156104f257506105c0565b60008290505b60018080549050038110156105a757600180820181548110151561051857fe5b9060005260206000200160009054906101000a900473ffffffffffffffffffffffffffffffffffffffff1660018281548110151561055257fe5b9060005260206000200160006101000a81548173ffffffffffffffffffffffffffffffffffffffff021916908373ffffffffffffffffffffffffffffffffffffffff16021790555080806001019150506104f8565b5060018054809190600190036105bd919061075e565b50505b50565b6060600180548060200260200160405190810160405280929190818152602001828054801561064757602002820191906000526020600020905b8160009054906101000a900473ffffffffffffffffffffffffffffffffffffffff1673ffffffffffffffffffffffffffffffffffffffff16815260200190600101908083116105fd575b5050505050905090565b60008060009054906101000a900473ffffffffffffffffffffffffffffffffffffffff1673ffffffffffffffffffffffffffffffffffffffff163373ffffffffffffffffffffffffffffffffffffffff1614905090565b6000809054906101000a900473ffffffffffffffffffffffffffffffffffffffff1673ffffffffffffffffffffffffffffffffffffffff163373ffffffffffffffffffffffffffffffffffffffff1614151561070357600080fd5b80600260008473ffffffffffffffffffffffffffffffffffffffff1673ffffffffffffffffffffffffffffffffffffffff16815260200190815260200160002060006101000a81548160ff0219169083151502179055505050565b81548183558181111561078557818360005260206000209182019101610784919061078a565b5b505050565b6107ac91905b808211156107a8576000816000905550600101610790565b5090565b9056fea165627a7a72305820f98685fcbed832159827f2856191a1514def8ca672a67277341422c971caa0190029",
  "source": "pragma solidity ^0.5.0;\r\n\r\nimport \"./StoreManagersInterface.sol\";\r\n\r\ncontract StoreManagers is StoreManagersInterface { \r\n\r\n    address owner;\r\n    \r\n    address[] storeManagers;\r\n    mapping(address => bool) activeStoreManagers;\r\n\r\n    constructor() public {\r\n        owner = msg.sender;\r\n    }\r\n  \r\n    // adding modifier to restrict owner access for several functions.\r\n    modifier restricted() {\r\n        require(msg.sender == owner); _;\r\n    }\r\n\r\n    function isOwner() public view returns (bool) {\r\n        return msg.sender == owner;\r\n    }\r\n\r\n    /*\r\n     determines if the storeManager address is really an active store manager.\r\n    */    \r\n    function isActiveStoreManager(address storeManager) public view returns (bool){\r\n        bool selectedStoreManager = activeStoreManagers[storeManager];\r\n        return selectedStoreManager;\r\n    }\r\n\r\n    function getAll() public view returns (address[] memory){\r\n        return storeManagers;\r\n    }\r\n\r\n    // restricted access to add a store manager.\r\n    function add(address manager) restricted public payable {\r\n        storeManagers.push(manager);\r\n        activeStoreManagers[manager] = true;\r\n    }\r\n\r\n    // restricted access to remove set active to false;\r\n    function update(address manager, bool status) restricted public payable {\r\n        activeStoreManagers[manager] = status;\r\n    }\r\n\r\n    // restricted access to remove a store manager from array and mapping\r\n    function remove(uint index) restricted public payable {\r\n        address storeManagerAddress = storeManagers[index];\r\n\r\n        // delete both values from mapping and array.\r\n        delete activeStoreManagers[storeManagerAddress];\r\n        delete storeManagers[index];\r\n\r\n        // if index is the last item in array, return        \r\n        if (index >= storeManagers.length) return;\r\n\r\n        /*\r\n         iterate over each element and move it one up, then reduce the length by 1.\r\n         this is just a simple iteration to clean up the array rather than leaving them\r\n         as blank spaces.\r\n        */\r\n        for (uint i = index; i < storeManagers.length-1; i++){\r\n            storeManagers[i] = storeManagers[i+1];\r\n        }\r\n        storeManagers.length--;\r\n    }\r\n\r\n    // fallback function, revert transaction.\r\n    function() external payable {\r\n        revert();\r\n    }\r\n\r\n}",
  "sourcePath": "C:/PersonalGit/Etherium.SmartContracts.Angular/contracts/StoreManagers.sol",
  "compiler": {
    "name": "solc",
    "version": "0.5.0+commit.1d4f565a.Emscripten.clang"
  },
  "schemaVersion": "3.0.2",
  "updatedAt": "2019-02-18T19:06:17.492Z",
  "devdoc": {
    "methods": {}
  },
  "userdoc": {
    "methods": {}
  }
}