{
  "contractName": "StoreItems",
  "abi": [
    {
      "constant": true,
      "inputs": [
        {
          "name": "",
          "type": "uint64"
        }
      ],
      "name": "itemsMapping",
      "outputs": [
        {
          "name": "image",
          "type": "string"
        },
        {
          "name": "title",
          "type": "string"
        },
        {
          "name": "price",
          "type": "uint256"
        },
        {
          "name": "quantity",
          "type": "uint16"
        },
        {
          "name": "available",
          "type": "bool"
        },
        {
          "name": "exist",
          "type": "bool"
        }
      ],
      "payable": false,
      "stateMutability": "view",
      "type": "function"
    },
    {
      "inputs": [
        {
          "name": "storeManagersContractAddress",
          "type": "address"
        }
      ],
      "payable": false,
      "stateMutability": "nonpayable",
      "type": "constructor"
    },
    {
      "payable": true,
      "stateMutability": "payable",
      "type": "fallback"
    },
    {
      "constant": true,
      "inputs": [],
      "name": "getAllCodes",
      "outputs": [
        {
          "name": "",
          "type": "uint64[]"
        }
      ],
      "payable": false,
      "stateMutability": "view",
      "type": "function"
    },
    {
      "constant": true,
      "inputs": [
        {
          "name": "code",
          "type": "uint64"
        }
      ],
      "name": "get",
      "outputs": [
        {
          "name": "",
          "type": "uint64"
        },
        {
          "name": "image",
          "type": "string"
        },
        {
          "name": "title",
          "type": "string"
        },
        {
          "name": "price",
          "type": "uint256"
        },
        {
          "name": "quantity",
          "type": "uint16"
        },
        {
          "name": "available",
          "type": "bool"
        }
      ],
      "payable": false,
      "stateMutability": "view",
      "type": "function"
    },
    {
      "constant": false,
      "inputs": [
        {
          "name": "code",
          "type": "uint64"
        },
        {
          "name": "image",
          "type": "string"
        },
        {
          "name": "title",
          "type": "string"
        },
        {
          "name": "price",
          "type": "uint256"
        },
        {
          "name": "quantity",
          "type": "uint16"
        },
        {
          "name": "available",
          "type": "bool"
        }
      ],
      "name": "add",
      "outputs": [],
      "payable": true,
      "stateMutability": "payable",
      "type": "function"
    },
    {
      "constant": false,
      "inputs": [
        {
          "name": "code",
          "type": "uint64"
        },
        {
          "name": "image",
          "type": "string"
        },
        {
          "name": "title",
          "type": "string"
        },
        {
          "name": "price",
          "type": "uint256"
        },
        {
          "name": "quantity",
          "type": "uint16"
        },
        {
          "name": "available",
          "type": "bool"
        }
      ],
      "name": "update",
      "outputs": [],
      "payable": true,
      "stateMutability": "payable",
      "type": "function"
    },
    {
      "constant": false,
      "inputs": [
        {
          "name": "code",
          "type": "uint64"
        },
        {
          "name": "quantity",
          "type": "uint16"
        }
      ],
      "name": "reduceQuantity",
      "outputs": [],
      "payable": true,
      "stateMutability": "payable",
      "type": "function"
    }
  ],
  "bytecode": "0x608060405234801561001057600080fd5b506040516020806120a98339810180604052602081101561003057600080fd5b8101908080519060200190929190505050336000806101000a81548173ffffffffffffffffffffffffffffffffffffffff021916908373ffffffffffffffffffffffffffffffffffffffff160217905550600073ffffffffffffffffffffffffffffffffffffffff168173ffffffffffffffffffffffffffffffffffffffff16141515156100bd57600080fd5b80600360006101000a81548173ffffffffffffffffffffffffffffffffffffffff021916908373ffffffffffffffffffffffffffffffffffffffff16021790555050611f9b8061010e6000396000f3fe608060405260043610610078576000357c0100000000000000000000000000000000000000000000000000000000900463ffffffff1680630bd8c0c61461007d5780633a92eb01146100e957806375d4c4c61461023f578063ada86798146103c9578063b43ef51e1461052f578063ec8e198a14610575575b600080fd5b34801561008957600080fd5b506100926106ff565b6040518080602001828103825283818151815260200191508051906020019060200280838360005b838110156100d55780820151818401526020810190506100ba565b505050509050019250505060405180910390f35b3480156100f557600080fd5b5061012c6004803603602081101561010c57600080fd5b81019080803567ffffffffffffffff16906020019092919050505061078b565b6040518080602001806020018781526020018661ffff1661ffff1681526020018515151515815260200184151515158152602001838103835289818151815260200191508051906020019080838360005b8381101561019857808201518184015260208101905061017d565b50505050905090810190601f1680156101c55780820380516001836020036101000a031916815260200191505b50838103825288818151815260200191508051906020019080838360005b838110156101fe5780820151818401526020810190506101e3565b50505050905090810190601f16801561022b5780820380516001836020036101000a031916815260200191505b509850505050505050505060405180910390f35b6103c7600480360360c081101561025557600080fd5b81019080803567ffffffffffffffff1690602001909291908035906020019064010000000081111561028657600080fd5b82018360208201111561029857600080fd5b803590602001918460018302840111640100000000831117156102ba57600080fd5b91908080601f016020809104026020016040519081016040528093929190818152602001838380828437600081840152601f19601f8201169050808301925050505050505091929192908035906020019064010000000081111561031d57600080fd5b82018360208201111561032f57600080fd5b8035906020019184600183028401116401000000008311171561035157600080fd5b91908080601f016020809104026020016040519081016040528093929190818152602001838380828437600081840152601f19601f82011690508083019250505050505050919291929080359060200190929190803561ffff16906020019092919080351515906020019092919050505061091f565b005b3480156103d557600080fd5b5061040c600480360360208110156103ec57600080fd5b81019080803567ffffffffffffffff169060200190929190505050610fe1565b604051808767ffffffffffffffff1667ffffffffffffffff16815260200180602001806020018681526020018561ffff1661ffff16815260200184151515158152602001838103835288818151815260200191508051906020019080838360005b8381101561048857808201518184015260208101905061046d565b50505050905090810190601f1680156104b55780820380516001836020036101000a031916815260200191505b50838103825287818151815260200191508051906020019080838360005b838110156104ee5780820151818401526020810190506104d3565b50505050905090810190601f16801561051b5780820380516001836020036101000a031916815260200191505b509850505050505050505060405180910390f35b6105736004803603604081101561054557600080fd5b81019080803567ffffffffffffffff169060200190929190803561ffff169060200190929190505050611229565b005b6106fd600480360360c081101561058b57600080fd5b81019080803567ffffffffffffffff169060200190929190803590602001906401000000008111156105bc57600080fd5b8201836020820111156105ce57600080fd5b803590602001918460018302840111640100000000831117156105f057600080fd5b91908080601f016020809104026020016040519081016040528093929190818152602001838380828437600081840152601f19601f8201169050808301925050505050505091929192908035906020019064010000000081111561065357600080fd5b82018360208201111561066557600080fd5b8035906020019184600183028401116401000000008311171561068757600080fd5b91908080601f016020809104026020016040519081016040528093929190818152602001838380828437600081840152601f19601f82011690508083019250505050505050919291929080359060200190929190803561ffff16906020019092919080351515906020019092919050505061167c565b005b6060600280548060200260200160405190810160405280929190818152602001828054801561078157602002820191906000526020600020906000905b82829054906101000a900467ffffffffffffffff1667ffffffffffffffff168152602001906008019060208260070104928301926001038202915080841161073c5790505b5050505050905090565b6001602052806000526040600020600091509050806000018054600181600116156101000203166002900480601f0160208091040260200160405190810160405280929190818152602001828054600181600116156101000203166002900480156108375780601f1061080c57610100808354040283529160200191610837565b820191906000526020600020905b81548152906001019060200180831161081a57829003601f168201915b505050505090806001018054600181600116156101000203166002900480601f0160208091040260200160405190810160405280929190818152602001828054600181600116156101000203166002900480156108d55780601f106108aa576101008083540402835291602001916108d5565b820191906000526020600020905b8154815290600101906020018083116108b857829003601f168201915b5050505050908060020154908060030160009054906101000a900461ffff16908060030160029054906101000a900460ff16908060030160039054906101000a900460ff16905086565b600360009054906101000a900473ffffffffffffffffffffffffffffffffffffffff1673ffffffffffffffffffffffffffffffffffffffff16632a09aa55336040518263ffffffff167c0100000000000000000000000000000000000000000000000000000000028152600401808273ffffffffffffffffffffffffffffffffffffffff1673ffffffffffffffffffffffffffffffffffffffff16815260200191505060206040518083038186803b1580156109da57600080fd5b505afa1580156109ee573d6000803e3d6000fd5b505050506040513d6020811015610a0457600080fd5b810190808051906020019092919050505015610fd95760008667ffffffffffffffff1610151515610a3457600080fd5b600160008767ffffffffffffffff1667ffffffffffffffff16815260200190815260200160002060030160039054906101000a900460ff16151515610b07576040517f08c379a00000000000000000000000000000000000000000000000000000000081526004018080602001828103825260228152602001807f6974656d2077697468207468697320636f646520616c7265616479206578697381526020017f747300000000000000000000000000000000000000000000000000000000000081525060400191505060405180910390fd5b6000600102856040516020018080602001828103825283818151815260200191508051906020019080838360005b83811015610b50578082015181840152602081019050610b35565b50505050905090810190601f168015610b7d5780820380516001836020036101000a031916815260200191505b509250505060405160208183030381529060405280519060200120111515610c0d576040517f08c379a000000000000000000000000000000000000000000000000000000000815260040180806020018281038252601e8152602001807f696d6167652073686f756c64206e6f74206265206c65667420656d707479000081525060200191505060405180910390fd5b6000600102846040516020018080602001828103825283818151815260200191508051906020019080838360005b83811015610c56578082015181840152602081019050610c3b565b50505050905090810190601f168015610c835780820380516001836020036101000a031916815260200191505b509250505060405160208183030381529060405280519060200120111515610d13576040517f08c379a000000000000000000000000000000000000000000000000000000000815260040180806020018281038252601e8152602001807f7469746c652073686f756c64206e6f74206265206c65667420656d707479000081525060200191505060405180910390fd5b60008310151515610d8c576040517f08c379a00000000000000000000000000000000000000000000000000000000081526004018080602001828103825260198152602001807f70726963652073686f756c642062652030206f72206d6f72650000000000000081525060200191505060405180910390fd5b60008261ffff1610151515610e09576040517f08c379a000000000000000000000000000000000000000000000000000000000815260040180806020018281038252601c8152602001807f7175616e746974792073686f756c642062652030206f72206d6f72650000000081525060200191505060405180910390fd5b600286908060018154018082558091505090600182039060005260206000209060049182820401919006600802909192909190916101000a81548167ffffffffffffffff021916908367ffffffffffffffff1602179055505084600160008867ffffffffffffffff1667ffffffffffffffff1681526020019081526020016000206000019080519060200190610ea0929190611eca565b5083600160008867ffffffffffffffff1667ffffffffffffffff1681526020019081526020016000206001019080519060200190610edf929190611eca565b5082600160008867ffffffffffffffff1667ffffffffffffffff1681526020019081526020016000206002018190555081600160008867ffffffffffffffff1667ffffffffffffffff16815260200190815260200160002060030160006101000a81548161ffff021916908361ffff16021790555080600160008867ffffffffffffffff1667ffffffffffffffff16815260200190815260200160002060030160026101000a81548160ff02191690831515021790555060018060008867ffffffffffffffff1667ffffffffffffffff16815260200190815260200160002060030160036101000a81548160ff0219169083151502179055505b505050505050565b6000606080600080600086600160008967ffffffffffffffff1667ffffffffffffffff168152602001908152602001600020600001600160008a67ffffffffffffffff1667ffffffffffffffff168152602001908152602001600020600101600160008b67ffffffffffffffff1667ffffffffffffffff16815260200190815260200160002060020154600160008c67ffffffffffffffff1667ffffffffffffffff16815260200190815260200160002060030160009054906101000a900461ffff16600160008d67ffffffffffffffff1667ffffffffffffffff16815260200190815260200160002060030160029054906101000a900460ff16848054600181600116156101000203166002900480601f0160208091040260200160405190810160405280929190818152602001828054600181600116156101000203166002900480156111715780601f1061114657610100808354040283529160200191611171565b820191906000526020600020905b81548152906001019060200180831161115457829003601f168201915b50505050509450838054600181600116156101000203166002900480601f01602080910402602001604051908101604052809291908181526020018280546001816001161561010002031660029004801561120d5780601f106111e25761010080835404028352916020019161120d565b820191906000526020600020905b8154815290600101906020018083116111f057829003601f168201915b5050505050935095509550955095509550955091939550919395565b60008267ffffffffffffffff16101515156112ac576040517f08c379a000000000000000000000000000000000000000000000000000000000815260040180806020018281038252601d8152602001807f636f64652073686f756c642062652067726561746564207468616e203000000081525060200191505060405180910390fd5b60011515600160008467ffffffffffffffff1667ffffffffffffffff16815260200190815260200160002060030160029054906101000a900460ff16151514151561135f576040517f08c379a00000000000000000000000000000000000000000000000000000000081526004018080602001828103825260188152602001807f6974656d2073686f756c6420626520617661696c61626c65000000000000000081525060200191505060405180910390fd5b600160008367ffffffffffffffff1667ffffffffffffffff16815260200190815260200160002060030160039054906101000a900460ff161515611431576040517f08c379a00000000000000000000000000000000000000000000000000000000081526004018080602001828103825260328152602001807f6974656d2077697468207468697320636f64652073686f756c6420616c72656181526020017f647920657869737420746f20757064617465000000000000000000000000000081525060400191505060405180910390fd5b8061ffff16600160008467ffffffffffffffff1667ffffffffffffffff16815260200190815260200160002060030160009054906101000a900461ffff1661ffff16101515156114e9576040517f08c379a000000000000000000000000000000000000000000000000000000000815260040180806020018281038252601d8152602001807f73746f636b207175616e746974792073686f756c64206265206d6f726500000081525060200191505060405180910390fd5b60008161ffff1610151515611566576040517f08c379a000000000000000000000000000000000000000000000000000000000815260040180806020018281038252601c8152602001807f7175616e746974792073686f756c642062652030206f72206d6f72650000000081525060200191505060405180910390fd5b6115708282611d1d565b80600160008467ffffffffffffffff1667ffffffffffffffff16815260200190815260200160002060030160009054906101000a900461ffff1603600160008467ffffffffffffffff1667ffffffffffffffff16815260200190815260200160002060030160006101000a81548161ffff021916908361ffff1602179055506000600160008467ffffffffffffffff1667ffffffffffffffff16815260200190815260200160002060030160009054906101000a900461ffff1661ffff161415611678576000600160008467ffffffffffffffff1667ffffffffffffffff16815260200190815260200160002060030160026101000a81548160ff0219169083151502179055505b5050565b600360009054906101000a900473ffffffffffffffffffffffffffffffffffffffff1673ffffffffffffffffffffffffffffffffffffffff16632a09aa55336040518263ffffffff167c0100000000000000000000000000000000000000000000000000000000028152600401808273ffffffffffffffffffffffffffffffffffffffff1673ffffffffffffffffffffffffffffffffffffffff16815260200191505060206040518083038186803b15801561173757600080fd5b505afa15801561174b573d6000803e3d6000fd5b505050506040513d602081101561176157600080fd5b810190808051906020019092919050505015611d155760008667ffffffffffffffff16101515156117fa576040517f08c379a000000000000000000000000000000000000000000000000000000000815260040180806020018281038252601d8152602001807f636f64652073686f756c642062652067726561746564207468616e203000000081525060200191505060405180910390fd5b600160008767ffffffffffffffff1667ffffffffffffffff16815260200190815260200160002060030160039054906101000a900460ff1615156118cc576040517f08c379a00000000000000000000000000000000000000000000000000000000081526004018080602001828103825260328152602001807f6974656d2077697468207468697320636f64652073686f756c6420616c72656181526020017f647920657869737420746f20757064617465000000000000000000000000000081525060400191505060405180910390fd5b6000600102856040516020018080602001828103825283818151815260200191508051906020019080838360005b838110156119155780820151818401526020810190506118fa565b50505050905090810190601f1680156119425780820380516001836020036101000a031916815260200191505b5092505050604051602081830303815290604052805190602001201115156119d2576040517f08c379a000000000000000000000000000000000000000000000000000000000815260040180806020018281038252601e8152602001807f696d6167652073686f756c64206e6f74206265206c65667420656d707479000081525060200191505060405180910390fd5b6000600102846040516020018080602001828103825283818151815260200191508051906020019080838360005b83811015611a1b578082015181840152602081019050611a00565b50505050905090810190601f168015611a485780820380516001836020036101000a031916815260200191505b509250505060405160208183030381529060405280519060200120111515611ad8576040517f08c379a000000000000000000000000000000000000000000000000000000000815260040180806020018281038252601e8152602001807f7469746c652073686f756c64206e6f74206265206c65667420656d707479000081525060200191505060405180910390fd5b60008310151515611b51576040517f08c379a00000000000000000000000000000000000000000000000000000000081526004018080602001828103825260198152602001807f70726963652073686f756c642062652030206f72206d6f72650000000000000081525060200191505060405180910390fd5b60008261ffff1610151515611bce576040517f08c379a000000000000000000000000000000000000000000000000000000000815260040180806020018281038252601c8152602001807f7175616e746974792073686f756c642062652030206f72206d6f72650000000081525060200191505060405180910390fd5b84600160008867ffffffffffffffff1667ffffffffffffffff1681526020019081526020016000206000019080519060200190611c0c929190611eca565b5083600160008867ffffffffffffffff1667ffffffffffffffff1681526020019081526020016000206001019080519060200190611c4b929190611eca565b5082600160008867ffffffffffffffff1667ffffffffffffffff1681526020019081526020016000206002018190555081600160008867ffffffffffffffff1667ffffffffffffffff16815260200190815260200160002060030160006101000a81548161ffff021916908361ffff16021790555060008261ffff161415611cd257600090505b80600160008867ffffffffffffffff1667ffffffffffffffff16815260200190815260200160002060030160026101000a81548160ff0219169083151502179055505b505050505050565b60008161ffff16600160008567ffffffffffffffff1667ffffffffffffffff16815260200190815260200160002060020154029050803373ffffffffffffffffffffffffffffffffffffffff163110151515611de1576040517f08c379a00000000000000000000000000000000000000000000000000000000081526004018080602001828103825260138152602001807f4e6f7420656e6f7567682062616c616e6365210000000000000000000000000081525060200191505060405180910390fd5b3481141515611e7e576040517f08c379a00000000000000000000000000000000000000000000000000000000081526004018080602001828103825260218152602001807f4f757374616e64696e672062616c616e636520646f6573206e6f74206d61746381526020017f680000000000000000000000000000000000000000000000000000000000000081525060400191505060405180910390fd5b3373ffffffffffffffffffffffffffffffffffffffff166108fc349081150290604051600060405180830381858888f19350505050158015611ec4573d6000803e3d6000fd5b50505050565b828054600181600116156101000203166002900490600052602060002090601f016020900481019282601f10611f0b57805160ff1916838001178555611f39565b82800160010185558215611f39579182015b82811115611f38578251825591602001919060010190611f1d565b5b509050611f469190611f4a565b5090565b611f6c91905b80821115611f68576000816000905550600101611f50565b5090565b9056fea165627a7a723058203b4ec3c8eef56d804a7bdcb37c386a5a3de3571f24732eca0614af60a4bf8a8e0029",
  "source": "pragma solidity ^0.5.0;\r\n\r\ninterface StoreManagersInterface {\r\n    function isActiveStoreManager(address storeManager) external view returns (bool);\r\n}\r\n\r\ncontract StoreItems { \r\n\r\n    address owner;\r\n\r\n    struct Item {\r\n        string image;\r\n        string title;\r\n        uint256 price;\r\n        uint16 quantity;\r\n        bool available;\r\n        bool exist;\r\n    }\r\n\r\n    mapping(uint64 => Item) public itemsMapping;\r\n    uint64[] itemCodes;\r\n    StoreManagersInterface storeManagers;\r\n\r\n    constructor(address storeManagersContractAddress) public {\r\n        owner = msg.sender;\r\n\r\n        require(storeManagersContractAddress != address(0));\r\n        storeManagers = StoreManagersInterface(storeManagersContractAddress);\r\n    }\r\n\r\n    modifier restricted() {\r\n        if (storeManagers.isActiveStoreManager(msg.sender)) _;\r\n    }\r\n\r\n    function getAllCodes() public view returns (uint64[] memory) {\r\n        return itemCodes;\r\n    }\r\n\r\n    function get(uint64 code) public view returns (uint64 , string memory image, string memory title, uint256 price, uint16 quantity, bool available) {\r\n        return (\r\n            code,\r\n            itemsMapping[code].image,\r\n            itemsMapping[code].title,\r\n            itemsMapping[code].price,\r\n            itemsMapping[code].quantity,\r\n            itemsMapping[code].available\r\n        );\r\n    }\r\n\r\n    function add(uint64 code, string memory image, string memory title, uint256 price, uint16 quantity, bool available) restricted public payable {\r\n        \r\n        require(code >= 0);\r\n        require(!itemsMapping[code].exist, \"item with this code already exists\");\r\n        require(keccak256(abi.encode(image)) > 0, \"image should not be left empty\");\r\n        require(keccak256(abi.encode(title)) > 0, \"title should not be left empty\");\r\n        require(price >= 0, \"price should be 0 or more\");\r\n        require(quantity >= 0, \"quantity should be 0 or more\");\r\n\r\n        itemCodes.push(code);\r\n        \r\n        itemsMapping[code].image = image;\r\n        itemsMapping[code].title = title;\r\n        itemsMapping[code].price = price;\r\n        itemsMapping[code].quantity = quantity;\r\n        itemsMapping[code].available = available;\r\n        itemsMapping[code].exist = true;\r\n    }\r\n\r\n    function update(uint64 code, string memory image, string memory title, uint256 price, uint16 quantity, bool available) restricted public payable {\r\n        \r\n        require(code >= 0, \"code should be greated than 0\");\r\n        require(itemsMapping[code].exist, \"item with this code should already exist to update\");\r\n        require(keccak256(abi.encode(image)) > 0, \"image should not be left empty\");\r\n        require(keccak256(abi.encode(title)) > 0, \"title should not be left empty\");\r\n        require(price >= 0, \"price should be 0 or more\");\r\n        require(quantity >= 0, \"quantity should be 0 or more\");\r\n\r\n        itemsMapping[code].image = image;\r\n        itemsMapping[code].title = title;\r\n        itemsMapping[code].price = price;\r\n        itemsMapping[code].quantity = quantity;\r\n\r\n        if(quantity == 0){\r\n            available = false;\r\n        }\r\n\r\n        itemsMapping[code].available = available;\r\n    }\r\n\r\n    function reduceQuantity(uint64 code, uint16 quantity) public payable {\r\n        require(code >= 0, \"code should be greated than 0\");\r\n        require(itemsMapping[code].available == true, \"item should be available\");\r\n        require(itemsMapping[code].exist, \"item with this code should already exist to update\");\r\n        require(itemsMapping[code].quantity >= quantity, \"stock quantity should be more\");\r\n        require(quantity >= 0, \"quantity should be 0 or more\");\r\n        \r\n\r\n        withdrawFunds(code, quantity);\r\n        itemsMapping[code].quantity = itemsMapping[code].quantity - quantity;\r\n\r\n        if(itemsMapping[code].quantity == 0){\r\n            itemsMapping[code].available = false;\r\n        }\r\n    }\r\n\r\n    function withdrawFunds(uint64 code, uint16 quantity) private {\r\n        uint256 outstandingBalance = itemsMapping[code].price * quantity;\r\n\r\n        // address payable payableOwner = address(uint160(owner));       \r\n\r\n        require(msg.sender.balance >= outstandingBalance, \"Not enough balance!\");\r\n        require(outstandingBalance == msg.value, \"Oustanding balance does not match\");\r\n\r\n        // payableOwner.transfer(msg.value);\r\n        // payableOwner = msg.sender;\r\n\r\n        msg.sender.transfer(msg.value); // transfer funds;\r\n    }\r\n\r\n    function() external payable {\r\n        revert();\r\n    }\r\n}",
  "sourcePath": "C:/PersonalGit/Etherium.SmartContracts.Angular/contracts/StoreItems.sol",
  "compiler": {
    "name": "solc",
    "version": "0.5.0+commit.1d4f565a.Emscripten.clang"
  },
  "schemaVersion": "3.0.1",
  "updatedAt": "2019-02-13T14:24:43.125Z",
  "devdoc": {
    "methods": {}
  },
  "userdoc": {
    "methods": {}
  }
}